{
  "contractName": "DevToken",
  "abi": [
    {
      "inputs": [
        {
          "internalType": "string",
          "name": "token_name",
          "type": "string"
        },
        {
          "internalType": "string",
          "name": "short_symbol",
          "type": "string"
        },
        {
          "internalType": "uint8",
          "name": "token_decimals",
          "type": "uint8"
        },
        {
          "internalType": "uint256",
          "name": "token_totalSupply",
          "type": "uint256"
        }
      ],
      "stateMutability": "nonpayable",
      "type": "constructor"
    },
    {
      "anonymous": false,
      "inputs": [
        {
          "indexed": true,
          "internalType": "address",
          "name": "owner",
          "type": "address"
        },
        {
          "indexed": true,
          "internalType": "address",
          "name": "spender",
          "type": "address"
        },
        {
          "indexed": false,
          "internalType": "uint256",
          "name": "value",
          "type": "uint256"
        }
      ],
      "name": "Approval",
      "type": "event"
    },
    {
      "anonymous": false,
      "inputs": [
        {
          "indexed": false,
          "internalType": "address",
          "name": "buyer",
          "type": "address"
        },
        {
          "indexed": false,
          "internalType": "uint256",
          "name": "amountOfETH",
          "type": "uint256"
        },
        {
          "indexed": false,
          "internalType": "uint256",
          "name": "amountOfTokens",
          "type": "uint256"
        }
      ],
      "name": "BuyTokens",
      "type": "event"
    },
    {
      "anonymous": false,
      "inputs": [
        {
          "indexed": true,
          "internalType": "address",
          "name": "previousOwner",
          "type": "address"
        },
        {
          "indexed": true,
          "internalType": "address",
          "name": "newOwner",
          "type": "address"
        }
      ],
      "name": "OwnershipTransferred",
      "type": "event"
    },
    {
      "anonymous": false,
      "inputs": [],
      "name": "Pause",
      "type": "event"
    },
    {
      "anonymous": false,
      "inputs": [],
      "name": "PausePresale",
      "type": "event"
    },
    {
      "anonymous": false,
      "inputs": [],
      "name": "SellPause",
      "type": "event"
    },
    {
      "anonymous": false,
      "inputs": [
        {
          "indexed": false,
          "internalType": "address",
          "name": "seller",
          "type": "address"
        },
        {
          "indexed": false,
          "internalType": "uint256",
          "name": "amountOfTokens",
          "type": "uint256"
        },
        {
          "indexed": false,
          "internalType": "uint256",
          "name": "amountOfETH",
          "type": "uint256"
        }
      ],
      "name": "SellTokens",
      "type": "event"
    },
    {
      "anonymous": false,
      "inputs": [],
      "name": "SellUnpause",
      "type": "event"
    },
    {
      "anonymous": false,
      "inputs": [
        {
          "indexed": true,
          "internalType": "address",
          "name": "user",
          "type": "address"
        },
        {
          "indexed": false,
          "internalType": "uint256",
          "name": "amount",
          "type": "uint256"
        },
        {
          "indexed": false,
          "internalType": "uint256",
          "name": "index",
          "type": "uint256"
        },
        {
          "indexed": false,
          "internalType": "uint256",
          "name": "timestamp",
          "type": "uint256"
        }
      ],
      "name": "Staked",
      "type": "event"
    },
    {
      "anonymous": false,
      "inputs": [
        {
          "indexed": true,
          "internalType": "address",
          "name": "from",
          "type": "address"
        },
        {
          "indexed": true,
          "internalType": "address",
          "name": "to",
          "type": "address"
        },
        {
          "indexed": false,
          "internalType": "uint256",
          "name": "value",
          "type": "uint256"
        }
      ],
      "name": "Transfer",
      "type": "event"
    },
    {
      "anonymous": false,
      "inputs": [],
      "name": "Unpause",
      "type": "event"
    },
    {
      "anonymous": false,
      "inputs": [],
      "name": "UnpausePresale",
      "type": "event"
    },
    {
      "anonymous": false,
      "inputs": [],
      "name": "changeDataFeed",
      "type": "event"
    },
    {
      "inputs": [],
      "name": "SellStatusPause",
      "outputs": [
        {
          "internalType": "bool",
          "name": "",
          "type": "bool"
        }
      ],
      "stateMutability": "view",
      "type": "function",
      "constant": true
    },
    {
      "inputs": [],
      "name": "Sellpause",
      "outputs": [
        {
          "internalType": "bool",
          "name": "",
          "type": "bool"
        }
      ],
      "stateMutability": "nonpayable",
      "type": "function"
    },
    {
      "inputs": [],
      "name": "Sellpaused",
      "outputs": [
        {
          "internalType": "bool",
          "name": "",
          "type": "bool"
        }
      ],
      "stateMutability": "view",
      "type": "function",
      "constant": true
    },
    {
      "inputs": [],
      "name": "Sellunpause",
      "outputs": [
        {
          "internalType": "bool",
          "name": "",
          "type": "bool"
        }
      ],
      "stateMutability": "nonpayable",
      "type": "function"
    },
    {
      "inputs": [
        {
          "internalType": "address",
          "name": "inviter",
          "type": "address"
        }
      ],
      "name": "buyTokens",
      "outputs": [
        {
          "internalType": "uint256",
          "name": "tokenAmount",
          "type": "uint256"
        }
      ],
      "stateMutability": "payable",
      "type": "function",
      "payable": true
    },
    {
      "inputs": [
        {
          "internalType": "uint256",
          "name": "_preSaleCommission",
          "type": "uint256"
        }
      ],
      "name": "changePreSaleCommission",
      "outputs": [
        {
          "internalType": "bool",
          "name": "",
          "type": "bool"
        }
      ],
      "stateMutability": "nonpayable",
      "type": "function"
    },
    {
      "inputs": [
        {
          "internalType": "address",
          "name": "proxyDataFeed",
          "type": "address"
        }
      ],
      "name": "changeProxy",
      "outputs": [
        {
          "internalType": "bool",
          "name": "",
          "type": "bool"
        }
      ],
      "stateMutability": "nonpayable",
      "type": "function"
    },
    {
      "inputs": [
        {
          "internalType": "uint256",
          "name": "_tokensPerEth",
          "type": "uint256"
        }
      ],
      "name": "changeTokenPerEth",
      "outputs": [
        {
          "internalType": "bool",
          "name": "",
          "type": "bool"
        }
      ],
      "stateMutability": "nonpayable",
      "type": "function"
    },
    {
      "inputs": [],
      "name": "getEthUsd",
      "outputs": [
        {
          "internalType": "int256",
          "name": "",
          "type": "int256"
        }
      ],
      "stateMutability": "view",
      "type": "function",
      "constant": true
    },
    {
      "inputs": [],
      "name": "getPreSaleCommission",
      "outputs": [
        {
          "internalType": "uint256",
          "name": "",
          "type": "uint256"
        }
      ],
      "stateMutability": "view",
      "type": "function",
      "constant": true
    },
    {
      "inputs": [],
      "name": "getStatusPause",
      "outputs": [
        {
          "internalType": "bool",
          "name": "",
          "type": "bool"
        }
      ],
      "stateMutability": "view",
      "type": "function",
      "constant": true
    },
    {
      "inputs": [],
      "name": "getTokenPerEth",
      "outputs": [
        {
          "internalType": "uint256",
          "name": "",
          "type": "uint256"
        }
      ],
      "stateMutability": "view",
      "type": "function",
      "constant": true
    },
    {
      "inputs": [
        {
          "internalType": "address",
          "name": "_staker",
          "type": "address"
        }
      ],
      "name": "hasStake",
      "outputs": [
        {
          "components": [
            {
              "internalType": "uint256",
              "name": "total_amount",
              "type": "uint256"
            },
            {
              "components": [
                {
                  "internalType": "address",
                  "name": "user",
                  "type": "address"
                },
                {
                  "internalType": "uint256",
                  "name": "amount",
                  "type": "uint256"
                },
                {
                  "internalType": "uint256",
                  "name": "since",
                  "type": "uint256"
                },
                {
                  "internalType": "uint256",
                  "name": "claimable",
                  "type": "uint256"
                }
              ],
              "internalType": "struct Stakeable.Stake[]",
              "name": "stakes",
              "type": "tuple[]"
            }
          ],
          "internalType": "struct Stakeable.StakingSummary",
          "name": "",
          "type": "tuple"
        }
      ],
      "stateMutability": "view",
      "type": "function",
      "constant": true
    },
    {
      "inputs": [],
      "name": "isOwner",
      "outputs": [
        {
          "internalType": "bool",
          "name": "",
          "type": "bool"
        }
      ],
      "stateMutability": "view",
      "type": "function",
      "constant": true
    },
    {
      "inputs": [],
      "name": "owner",
      "outputs": [
        {
          "internalType": "address",
          "name": "",
          "type": "address"
        }
      ],
      "stateMutability": "view",
      "type": "function",
      "constant": true
    },
    {
      "inputs": [],
      "name": "pause",
      "outputs": [
        {
          "internalType": "bool",
          "name": "",
          "type": "bool"
        }
      ],
      "stateMutability": "nonpayable",
      "type": "function"
    },
    {
      "inputs": [],
      "name": "pausePresale",
      "outputs": [
        {
          "internalType": "bool",
          "name": "",
          "type": "bool"
        }
      ],
      "stateMutability": "nonpayable",
      "type": "function"
    },
    {
      "inputs": [],
      "name": "paused",
      "outputs": [
        {
          "internalType": "bool",
          "name": "",
          "type": "bool"
        }
      ],
      "stateMutability": "view",
      "type": "function",
      "constant": true
    },
    {
      "inputs": [],
      "name": "pausedPresale",
      "outputs": [
        {
          "internalType": "bool",
          "name": "",
          "type": "bool"
        }
      ],
      "stateMutability": "view",
      "type": "function",
      "constant": true
    },
    {
      "inputs": [],
      "name": "preSaleCommission",
      "outputs": [
        {
          "internalType": "uint256",
          "name": "",
          "type": "uint256"
        }
      ],
      "stateMutability": "view",
      "type": "function",
      "constant": true
    },
    {
      "inputs": [],
      "name": "proxyDataFeeds",
      "outputs": [
        {
          "internalType": "address",
          "name": "",
          "type": "address"
        }
      ],
      "stateMutability": "view",
      "type": "function",
      "constant": true
    },
    {
      "inputs": [],
      "name": "renounceOwnership",
      "outputs": [],
      "stateMutability": "nonpayable",
      "type": "function"
    },
    {
      "inputs": [
        {
          "internalType": "uint256",
          "name": "tokenAmountToSell",
          "type": "uint256"
        }
      ],
      "name": "sellTokens",
      "outputs": [],
      "stateMutability": "nonpayable",
      "type": "function"
    },
    {
      "inputs": [],
      "name": "tokensPerEth",
      "outputs": [
        {
          "internalType": "uint256",
          "name": "",
          "type": "uint256"
        }
      ],
      "stateMutability": "view",
      "type": "function",
      "constant": true
    },
    {
      "inputs": [
        {
          "internalType": "address",
          "name": "newOwner",
          "type": "address"
        }
      ],
      "name": "transferOwnership",
      "outputs": [],
      "stateMutability": "nonpayable",
      "type": "function"
    },
    {
      "inputs": [],
      "name": "unpause",
      "outputs": [
        {
          "internalType": "bool",
          "name": "",
          "type": "bool"
        }
      ],
      "stateMutability": "nonpayable",
      "type": "function"
    },
    {
      "inputs": [],
      "name": "unpausePresale",
      "outputs": [
        {
          "internalType": "bool",
          "name": "",
          "type": "bool"
        }
      ],
      "stateMutability": "nonpayable",
      "type": "function"
    },
    {
      "inputs": [],
      "name": "withdraw",
      "outputs": [],
      "stateMutability": "nonpayable",
      "type": "function"
    },
    {
      "inputs": [],
      "name": "getInfoToken",
      "outputs": [
        {
          "components": [
            {
              "internalType": "uint256",
              "name": "_totalSupply",
              "type": "uint256"
            },
            {
              "internalType": "uint8",
              "name": "_decimals",
              "type": "uint8"
            },
            {
              "internalType": "string",
              "name": "_symbol",
              "type": "string"
            },
            {
              "internalType": "string",
              "name": "_name",
              "type": "string"
            }
          ],
          "internalType": "struct DevToken.infoToken",
          "name": "_propertyObj",
          "type": "tuple"
        }
      ],
      "stateMutability": "view",
      "type": "function",
      "constant": true
    },
    {
      "inputs": [],
      "name": "decimals",
      "outputs": [
        {
          "internalType": "uint8",
          "name": "",
          "type": "uint8"
        }
      ],
      "stateMutability": "view",
      "type": "function",
      "constant": true
    },
    {
      "inputs": [],
      "name": "symbol",
      "outputs": [
        {
          "internalType": "string",
          "name": "",
          "type": "string"
        }
      ],
      "stateMutability": "view",
      "type": "function",
      "constant": true
    },
    {
      "inputs": [],
      "name": "name",
      "outputs": [
        {
          "internalType": "string",
          "name": "",
          "type": "string"
        }
      ],
      "stateMutability": "view",
      "type": "function",
      "constant": true
    },
    {
      "inputs": [],
      "name": "totalSupply",
      "outputs": [
        {
          "internalType": "uint256",
          "name": "",
          "type": "uint256"
        }
      ],
      "stateMutability": "view",
      "type": "function",
      "constant": true
    },
    {
      "inputs": [
        {
          "internalType": "address",
          "name": "account",
          "type": "address"
        }
      ],
      "name": "balanceOf",
      "outputs": [
        {
          "internalType": "uint256",
          "name": "",
          "type": "uint256"
        }
      ],
      "stateMutability": "view",
      "type": "function",
      "constant": true
    },
    {
      "inputs": [],
      "name": "balanceOfContract",
      "outputs": [
        {
          "internalType": "uint256",
          "name": "",
          "type": "uint256"
        }
      ],
      "stateMutability": "view",
      "type": "function",
      "constant": true
    },
    {
      "inputs": [
        {
          "internalType": "address",
          "name": "account",
          "type": "address"
        },
        {
          "internalType": "uint256",
          "name": "amount",
          "type": "uint256"
        }
      ],
      "name": "burn",
      "outputs": [
        {
          "internalType": "bool",
          "name": "",
          "type": "bool"
        }
      ],
      "stateMutability": "nonpayable",
      "type": "function"
    },
    {
      "inputs": [
        {
          "internalType": "address",
          "name": "account",
          "type": "address"
        },
        {
          "internalType": "uint256",
          "name": "amount",
          "type": "uint256"
        }
      ],
      "name": "mint",
      "outputs": [
        {
          "internalType": "bool",
          "name": "",
          "type": "bool"
        }
      ],
      "stateMutability": "nonpayable",
      "type": "function"
    },
    {
      "inputs": [
        {
          "internalType": "address",
          "name": "recipient",
          "type": "address"
        },
        {
          "internalType": "uint256",
          "name": "amount",
          "type": "uint256"
        }
      ],
      "name": "transfer",
      "outputs": [
        {
          "internalType": "bool",
          "name": "",
          "type": "bool"
        }
      ],
      "stateMutability": "nonpayable",
      "type": "function"
    },
    {
      "inputs": [],
      "name": "getOwner",
      "outputs": [
        {
          "internalType": "address",
          "name": "",
          "type": "address"
        }
      ],
      "stateMutability": "view",
      "type": "function",
      "constant": true
    },
    {
      "inputs": [
        {
          "internalType": "address",
          "name": "owner",
          "type": "address"
        },
        {
          "internalType": "address",
          "name": "spender",
          "type": "address"
        }
      ],
      "name": "allowance",
      "outputs": [
        {
          "internalType": "uint256",
          "name": "",
          "type": "uint256"
        }
      ],
      "stateMutability": "view",
      "type": "function",
      "constant": true
    },
    {
      "inputs": [
        {
          "internalType": "address",
          "name": "spender",
          "type": "address"
        },
        {
          "internalType": "uint256",
          "name": "amount",
          "type": "uint256"
        }
      ],
      "name": "approve",
      "outputs": [
        {
          "internalType": "bool",
          "name": "",
          "type": "bool"
        }
      ],
      "stateMutability": "nonpayable",
      "type": "function"
    },
    {
      "inputs": [
        {
          "internalType": "address",
          "name": "sender",
          "type": "address"
        },
        {
          "internalType": "address",
          "name": "recipient",
          "type": "address"
        },
        {
          "internalType": "uint256",
          "name": "amount",
          "type": "uint256"
        }
      ],
      "name": "transferFrom",
      "outputs": [
        {
          "internalType": "bool",
          "name": "",
          "type": "bool"
        }
      ],
      "stateMutability": "nonpayable",
      "type": "function"
    },
    {
      "inputs": [
        {
          "internalType": "address",
          "name": "spender",
          "type": "address"
        },
        {
          "internalType": "uint256",
          "name": "addedValue",
          "type": "uint256"
        }
      ],
      "name": "increaseAllowance",
      "outputs": [
        {
          "internalType": "bool",
          "name": "",
          "type": "bool"
        }
      ],
      "stateMutability": "nonpayable",
      "type": "function"
    },
    {
      "inputs": [
        {
          "internalType": "address",
          "name": "spender",
          "type": "address"
        },
        {
          "internalType": "uint256",
          "name": "subtractedValue",
          "type": "uint256"
        }
      ],
      "name": "decreaseAllowance",
      "outputs": [
        {
          "internalType": "bool",
          "name": "",
          "type": "bool"
        }
      ],
      "stateMutability": "nonpayable",
      "type": "function"
    },
    {
      "inputs": [
        {
          "internalType": "uint256",
          "name": "_amount",
          "type": "uint256"
        }
      ],
      "name": "stake",
      "outputs": [],
      "stateMutability": "nonpayable",
      "type": "function"
    },
    {
      "inputs": [
        {
          "internalType": "uint256",
          "name": "amount",
          "type": "uint256"
        },
        {
          "internalType": "uint256",
          "name": "stake_index",
          "type": "uint256"
        }
      ],
      "name": "withdrawStake",
      "outputs": [],
      "stateMutability": "nonpayable",
      "type": "function"
    },
    {
      "inputs": [],
      "name": "totalStakes",
      "outputs": [
        {
          "internalType": "uint256",
          "name": "",
          "type": "uint256"
        }
      ],
      "stateMutability": "view",
      "type": "function",
      "constant": true
    }
  ],
  "bytecode": "0x608060405260008060146101000a81548160ff02191690831515021790555060008060156101000a81548160ff0219169083151502179055506103e86003556000600460006101000a81548160ff02191690831515021790555073d0d5e3db44de05e9f294bb0a3beeaf030de24ada600560006101000a81548173ffffffffffffffffffffffffffffffffffffffff021916908373ffffffffffffffffffffffffffffffffffffffff160217905550610127600755600a600855348015620000c657600080fd5b5060405162005dd238038062005dd28339818101604052810190620000ec919062000527565b306000620000ff620003a660201b60201c565b9050806000806101000a81548173ffffffffffffffffffffffffffffffffffffffff021916908373ffffffffffffffffffffffffffffffffffffffff1602179055508073ffffffffffffffffffffffffffffffffffffffff16600073ffffffffffffffffffffffffffffffffffffffff167f8be0079c531659141344cd1fd0a4f28419497f9722a3daafe3b4186f6b6457e060405160405180910390a3506001808160018154018082558091505003906000526020600020905050600560009054906101000a900473ffffffffffffffffffffffffffffffffffffffff16600460016101000a81548173ffffffffffffffffffffffffffffffffffffffff021916908373ffffffffffffffffffffffffffffffffffffffff16021790555080600660006101000a81548173ffffffffffffffffffffffffffffffffffffffff021916908373ffffffffffffffffffffffffffffffffffffffff1602179055505083600c908051906020019062000277929190620003d7565b5082600b908051906020019062000290929190620003d7565b5081600a60006101000a81548160ff021916908360ff160217905550600a60009054906101000a900460ff16600a620002ca9190620006ad565b81620002d79190620007ea565b600981905550600954600d6000620002f4620003ae60201b60201c565b73ffffffffffffffffffffffffffffffffffffffff1673ffffffffffffffffffffffffffffffffffffffff168152602001908152602001600020819055503073ffffffffffffffffffffffffffffffffffffffff16600073ffffffffffffffffffffffffffffffffffffffff167fddf252ad1be2c89b69c2b068fc378daa952ba7f163c4a11628f55a4df523b3ef600954604051620003949190620005d6565b60405180910390a350505050620009e3565b600033905090565b60008060009054906101000a900473ffffffffffffffffffffffffffffffffffffffff16905090565b828054620003e59062000898565b90600052602060002090601f01602090048101928262000409576000855562000455565b82601f106200042457805160ff191683800117855562000455565b8280016001018555821562000455579182015b828111156200045457825182559160200191906001019062000437565b5b50905062000464919062000468565b5090565b5b808211156200048357600081600090555060010162000469565b5090565b60006200049e62000498846200061c565b620005f3565b905082815260208101848484011115620004b757600080fd5b620004c484828562000862565b509392505050565b600082601f830112620004de57600080fd5b8151620004f084826020860162000487565b91505092915050565b6000815190506200050a81620009af565b92915050565b6000815190506200052181620009c9565b92915050565b600080600080608085870312156200053e57600080fd5b600085015167ffffffffffffffff8111156200055957600080fd5b6200056787828801620004cc565b945050602085015167ffffffffffffffff8111156200058557600080fd5b6200059387828801620004cc565b9350506040620005a68782880162000510565b9250506060620005b987828801620004f9565b91505092959194509250565b620005d0816200084b565b82525050565b6000602082019050620005ed6000830184620005c5565b92915050565b6000620005ff62000612565b90506200060d8282620008ce565b919050565b6000604051905090565b600067ffffffffffffffff8211156200063a576200063962000962565b5b620006458262000991565b9050602081019050919050565b6000808291508390505b6001851115620006a4578086048111156200067c576200067b62000904565b5b60018516156200068c5780820291505b80810290506200069c85620009a2565b94506200065c565b94509492505050565b6000620006ba826200084b565b9150620006c78362000855565b9250620006f67fffffffffffffffffffffffffffffffffffffffffffffffffffffffffffffffff8484620006fe565b905092915050565b600082620007105760019050620007e3565b81620007205760009050620007e3565b816001811462000739576002811462000744576200077a565b6001915050620007e3565b60ff84111562000759576200075862000904565b5b8360020a91508482111562000773576200077262000904565b5b50620007e3565b5060208310610133831016604e8410600b8410161715620007b45782820a905083811115620007ae57620007ad62000904565b5b620007e3565b620007c3848484600162000652565b92509050818404811115620007dd57620007dc62000904565b5b81810290505b9392505050565b6000620007f7826200084b565b915062000804836200084b565b9250817fffffffffffffffffffffffffffffffffffffffffffffffffffffffffffffffff048311821515161562000840576200083f62000904565b5b828202905092915050565b6000819050919050565b600060ff82169050919050565b60005b838110156200088257808201518184015260208101905062000865565b8381111562000892576000848401525b50505050565b60006002820490506001821680620008b157607f821691505b60208210811415620008c857620008c762000933565b5b50919050565b620008d98262000991565b810181811067ffffffffffffffff82111715620008fb57620008fa62000962565b5b80604052505050565b7f4e487b7100000000000000000000000000000000000000000000000000000000600052601160045260246000fd5b7f4e487b7100000000000000000000000000000000000000000000000000000000600052602260045260246000fd5b7f4e487b7100000000000000000000000000000000000000000000000000000000600052604160045260246000fd5b6000601f19601f8301169050919050565b60008160011c9050919050565b620009ba816200084b565b8114620009c657600080fd5b50565b620009d48162000855565b8114620009e057600080fd5b50565b6153df80620009f36000396000f3fe6080604052600436106102885760003560e01c80638bb8b2db1161015a578063c4031841116100c1578063e999d9b31161007a578063e999d9b314610a1c578063ec8ac4d814610a59578063eee5592f14610a89578063f1fdf46914610ab4578063f2fde38b14610add578063fd5baf3f14610b0657610288565b8063c4031841146108d2578063cbdd69b51461090f578063cec6e2ca1461093a578063dd62ed3e14610977578063e6c7c456146109b4578063e73e14bf146109df57610288565b8063a457c2d711610113578063a457c2d7146107ae578063a694fc3a146107eb578063a9059cbb14610814578063bb27e0ce14610851578063bf9befb11461087c578063c2c6bcce146108a757610288565b80638bb8b2db1461069a5780638da5cb5b146106c55780638f32d59b146106f0578063956e060d1461071b57806395d89b41146107465780639dc29fac1461077157610288565b806340c10f19116101fe5780636c11bcd3116101b75780636c11bcd31461059c57806370a08231146105c5578063715018a6146106025780637ddf61cb146106195780638456cb5914610644578063893d20e81461066f57610288565b806340c10f191461048857806346b958da146104c557806350b7b447146104f05780635c975abb1461051b57806363bd6b65146105465780636a3037561461057157610288565b806318160ddd1161025057806318160ddd1461037657806323b872dd146103a1578063313ce567146103de57806339509351146104095780633ccfd60b146104465780633f4ba83a1461045d57610288565b806306fdde031461028d578063070f5c09146102b8578063095ea7b3146102e35780630b70c04a146103205780631658c0531461034b575b600080fd5b34801561029957600080fd5b506102a2610b31565b6040516102af9190614469565b60405180910390f35b3480156102c457600080fd5b506102cd610bc3565b6040516102da9190614433565b60405180910390f35b3480156102ef57600080fd5b5061030a60048036038101906103059190613c18565b610c74565b6040516103179190614433565b60405180910390f35b34801561032c57600080fd5b50610335610cab565b6040516103429190614433565b60405180910390f35b34801561035757600080fd5b50610360610cc1565b60405161036d9190614433565b60405180910390f35b34801561038257600080fd5b5061038b610cd4565b60405161039891906147ef565b60405180910390f35b3480156103ad57600080fd5b506103c860048036038101906103c39190613bc9565b610cde565b6040516103d59190614433565b60405180910390f35b3480156103ea57600080fd5b506103f3610def565b6040516104009190614841565b60405180910390f35b34801561041557600080fd5b50610430600480360381019061042b9190613c18565b610e06565b60405161043d9190614433565b60405180910390f35b34801561045257600080fd5b5061045b610ed2565b005b34801561046957600080fd5b50610472611018565b60405161047f9190614433565b60405180910390f35b34801561049457600080fd5b506104af60048036038101906104aa9190613c18565b6110c7565b6040516104bc9190614433565b60405180910390f35b3480156104d157600080fd5b506104da611124565b6040516104e791906147cd565b60405180910390f35b3480156104fc57600080fd5b5061050561127a565b6040516105129190614433565b60405180910390f35b34801561052757600080fd5b50610530611290565b60405161053d9190614433565b60405180910390f35b34801561055257600080fd5b5061055b6112a3565b6040516105689190614433565b60405180910390f35b34801561057d57600080fd5b50610586611352565b6040516105939190614433565b60405180910390f35b3480156105a857600080fd5b506105c360048036038101906105be9190613c7d565b611365565b005b3480156105d157600080fd5b506105ec60048036038101906105e79190613b64565b6116cb565b6040516105f991906147ef565b60405180910390f35b34801561060e57600080fd5b50610617611714565b005b34801561062557600080fd5b5061062e611819565b60405161063b91906147ef565b60405180910390f35b34801561065057600080fd5b5061065961181f565b6040516106669190614433565b60405180910390f35b34801561067b57600080fd5b506106846118d0565b6040516106919190614381565b60405180910390f35b3480156106a657600080fd5b506106af6118df565b6040516106bc91906147ef565b60405180910390f35b3480156106d157600080fd5b506106da6118e9565b6040516106e79190614381565b60405180910390f35b3480156106fc57600080fd5b50610705611912565b6040516107129190614433565b60405180910390f35b34801561072757600080fd5b50610730611970565b60405161073d9190614381565b60405180910390f35b34801561075257600080fd5b5061075b611996565b6040516107689190614469565b60405180910390f35b34801561077d57600080fd5b5061079860048036038101906107939190613c18565b611a28565b6040516107a59190614433565b60405180910390f35b3480156107ba57600080fd5b506107d560048036038101906107d09190613c18565b611a85565b6040516107e29190614433565b60405180910390f35b3480156107f757600080fd5b50610812600480360381019061080d9190613c7d565b611b6b565b005b34801561082057600080fd5b5061083b60048036038101906108369190613c18565b611c10565b6040516108489190614433565b60405180910390f35b34801561085d57600080fd5b50610866611c47565b604051610873919061444e565b60405180910390f35b34801561088857600080fd5b50610891611d3e565b60405161089e91906147ef565b60405180910390f35b3480156108b357600080fd5b506108bc611d4d565b6040516108c991906147ef565b60405180910390f35b3480156108de57600080fd5b506108f960048036038101906108f49190613b64565b611d57565b6040516109069190614433565b60405180910390f35b34801561091b57600080fd5b50610924611e16565b60405161093191906147ef565b60405180910390f35b34801561094657600080fd5b50610961600480360381019061095c9190613c7d565b611e1c565b60405161096e9190614433565b60405180910390f35b34801561098357600080fd5b5061099e60048036038101906109999190613b8d565b611e75565b6040516109ab91906147ef565b60405180910390f35b3480156109c057600080fd5b506109c9611efc565b6040516109d691906147ef565b60405180910390f35b3480156109eb57600080fd5b50610a066004803603810190610a019190613b64565b611f43565b604051610a1391906147ab565b60405180910390f35b348015610a2857600080fd5b50610a436004803603810190610a3e9190613c7d565b6121e8565b604051610a509190614433565b60405180910390f35b610a736004803603810190610a6e9190613b64565b612241565b604051610a8091906147ef565b60405180910390f35b348015610a9557600080fd5b50610a9e61267c565b604051610aab9190614433565b60405180910390f35b348015610ac057600080fd5b50610adb6004803603810190610ad69190613ccf565b61272c565b005b348015610ae957600080fd5b50610b046004803603810190610aff9190613b64565b612750565b005b348015610b1257600080fd5b50610b1b6127a3565b604051610b289190614433565b60405180910390f35b6060600c8054610b4090614af4565b80601f0160208091040260200160405190810160405280929190818152602001828054610b6c90614af4565b8015610bb95780601f10610b8e57610100808354040283529160200191610bb9565b820191906000526020600020905b815481529060010190602001808311610b9c57829003601f168201915b5050505050905090565b6000610bcd611912565b610c0c576040517f08c379a0000000000000000000000000000000000000000000000000000000008152600401610c039061448b565b60405180910390fd5b600460009054906101000a900460ff1615610c2657600080fd5b6001600460006101000a81548160ff0219169083151502179055507f246b71396faa056984d7cf7f4e972c6a019547a4b79bc37a393e68125ee1b96160405160405180910390a16001905090565b60008060149054906101000a900460ff1615610c8f57600080fd5b610ca1610c9a612854565b848461285c565b6001905092915050565b60008060159054906101000a900460ff16905090565b600460009054906101000a900460ff1681565b6000600954905090565b60008060149054906101000a900460ff1615610cf957600080fd5b610d04848484612a27565b6000600e60008673ffffffffffffffffffffffffffffffffffffffff1673ffffffffffffffffffffffffffffffffffffffff1681526020019081526020016000206000610d4f612854565b73ffffffffffffffffffffffffffffffffffffffff1673ffffffffffffffffffffffffffffffffffffffff16815260200190815260200160002054905082811015610dcf576040517f08c379a0000000000000000000000000000000000000000000000000000000008152600401610dc69061456b565b60405180910390fd5b610de385610ddb612854565b85840361285c565b60019150509392505050565b6000600a60009054906101000a900460ff16905090565b60008060149054906101000a900460ff1615610e2157600080fd5b610ec8610e2c612854565b84610ec385600e6000610e3d612854565b73ffffffffffffffffffffffffffffffffffffffff1673ffffffffffffffffffffffffffffffffffffffff16815260200190815260200160002060008973ffffffffffffffffffffffffffffffffffffffff1673ffffffffffffffffffffffffffffffffffffffff16815260200190815260200160002054612d3790919063ffffffff16565b61285c565b6001905092915050565b610eda611912565b610f19576040517f08c379a0000000000000000000000000000000000000000000000000000000008152600401610f109061448b565b60405180910390fd5b600047905060008111610f61576040517f08c379a0000000000000000000000000000000000000000000000000000000008152600401610f58906146eb565b60405180910390fd5b6000610f6b612854565b73ffffffffffffffffffffffffffffffffffffffff1647604051610f8e9061436c565b60006040518083038185875af1925050503d8060008114610fcb576040519150601f19603f3d011682016040523d82523d6000602084013e610fd0565b606091505b5050905080611014576040517f08c379a000000000000000000000000000000000000000000000000000000000815260040161100b9061468b565b60405180910390fd5b5050565b6000611022611912565b611061576040517f08c379a00000000000000000000000000000000000000000000000000000000081526004016110589061448b565b60405180910390fd5b600060149054906101000a900460ff1661107a57600080fd5b60008060146101000a81548160ff0219169083151502179055507f7805862f689e2f13df9f062ff482ad3ad112aca9e0847911ed832e158c525b3360405160405180910390a16001905090565b60006110d1611912565b611110576040517f08c379a00000000000000000000000000000000000000000000000000000000081526004016111079061448b565b60405180910390fd5b61111a8383612d4d565b6001905092915050565b61112c613aa1565b60405180608001604052806009548152602001600a60009054906101000a900460ff1660ff168152602001600b805461116490614af4565b80601f016020809104026020016040519081016040528092919081815260200182805461119090614af4565b80156111dd5780601f106111b2576101008083540402835291602001916111dd565b820191906000526020600020905b8154815290600101906020018083116111c057829003601f168201915b50505050508152602001600c80546111f490614af4565b80601f016020809104026020016040519081016040528092919081815260200182805461122090614af4565b801561126d5780601f106112425761010080835404028352916020019161126d565b820191906000526020600020905b81548152906001019060200180831161125057829003601f168201915b5050505050815250905090565b60008060149054906101000a900460ff16905090565b600060149054906101000a900460ff1681565b60006112ad611912565b6112ec576040517f08c379a00000000000000000000000000000000000000000000000000000000081526004016112e39061448b565b60405180910390fd5b600060159054906101000a900460ff1661130557600080fd5b60008060156101000a81548160ff0219169083151502179055507f7c9f776faee584836211e3f1a3e944cf4589d069bee188ddde230245bc46a73760405160405180910390a16001905090565b600060159054906101000a900460ff1681565b600081116113a8576040517f08c379a000000000000000000000000000000000000000000000000000000000815260040161139f9061460b565b60405180910390fd5b6000600660009054906101000a900473ffffffffffffffffffffffffffffffffffffffff1673ffffffffffffffffffffffffffffffffffffffff166370a082316113f0612854565b6040518263ffffffff1660e01b815260040161140c9190614381565b60206040518083038186803b15801561142457600080fd5b505afa158015611438573d6000803e3d6000fd5b505050506040513d601f19601f8201168201806040525081019061145c9190613ca6565b9050818110156114a1576040517f08c379a00000000000000000000000000000000000000000000000000000000081526004016114989061452b565b60405180910390fd5b60006305f5e1006114b0611c47565b6114ba9190614923565b9050600081846114ca919061498d565b9050600047905081811015611514576040517f08c379a000000000000000000000000000000000000000000000000000000000815260040161150b906144cb565b60405180910390fd5b6000600660009054906101000a900473ffffffffffffffffffffffffffffffffffffffff1673ffffffffffffffffffffffffffffffffffffffff166323b872dd61155c612854565b30896040518463ffffffff1660e01b815260040161157c9392919061439c565b602060405180830381600087803b15801561159657600080fd5b505af11580156115aa573d6000803e3d6000fd5b505050506040513d601f19601f820116820180604052508101906115ce9190613c54565b905080611610576040517f08c379a0000000000000000000000000000000000000000000000000000000008152600401611607906145cb565b60405180910390fd5b611618612854565b73ffffffffffffffffffffffffffffffffffffffff168360405161163b9061436c565b60006040518083038185875af1925050503d8060008114611678576040519150601f19603f3d011682016040523d82523d6000602084013e61167d565b606091505b505080915050806116c3576040517f08c379a00000000000000000000000000000000000000000000000000000000081526004016116ba9061470b565b60405180910390fd5b505050505050565b6000600d60008373ffffffffffffffffffffffffffffffffffffffff1673ffffffffffffffffffffffffffffffffffffffff168152602001908152602001600020549050919050565b61171c611912565b61175b576040517f08c379a00000000000000000000000000000000000000000000000000000000081526004016117529061448b565b60405180910390fd5b600073ffffffffffffffffffffffffffffffffffffffff1660008054906101000a900473ffffffffffffffffffffffffffffffffffffffff1673ffffffffffffffffffffffffffffffffffffffff167f8be0079c531659141344cd1fd0a4f28419497f9722a3daafe3b4186f6b6457e060405160405180910390a360008060006101000a81548173ffffffffffffffffffffffffffffffffffffffff021916908373ffffffffffffffffffffffffffffffffffffffff160217905550565b60085481565b6000611829611912565b611868576040517f08c379a000000000000000000000000000000000000000000000000000000000815260040161185f9061448b565b60405180910390fd5b600060149054906101000a900460ff161561188257600080fd5b6001600060146101000a81548160ff0219169083151502179055507f6985a02210a168e66602d3235cb6db0e70f92b3ba4d376a33c0f3d9434bff62560405160405180910390a16001905090565b60006118da6118e9565b905090565b6000600754905090565b60008060009054906101000a900473ffffffffffffffffffffffffffffffffffffffff16905090565b60008060009054906101000a900473ffffffffffffffffffffffffffffffffffffffff1673ffffffffffffffffffffffffffffffffffffffff16611954612854565b73ffffffffffffffffffffffffffffffffffffffff1614905090565b600560009054906101000a900473ffffffffffffffffffffffffffffffffffffffff1681565b6060600b80546119a590614af4565b80601f01602080910402602001604051908101604052809291908181526020018280546119d190614af4565b8015611a1e5780601f106119f357610100808354040283529160200191611a1e565b820191906000526020600020905b815481529060010190602001808311611a0157829003601f168201915b5050505050905090565b6000611a32611912565b611a71576040517f08c379a0000000000000000000000000000000000000000000000000000000008152600401611a689061448b565b60405180910390fd5b611a7b8383612ed7565b6001905092915050565b60008060149054906101000a900460ff1615611aa057600080fd5b611b61611aab612854565b84611b5c8560405180606001604052806028815260200161533460289139600e6000611ad5612854565b73ffffffffffffffffffffffffffffffffffffffff1673ffffffffffffffffffffffffffffffffffffffff16815260200190815260200160002060008a73ffffffffffffffffffffffffffffffffffffffff1673ffffffffffffffffffffffffffffffffffffffff168152602001908152602001600020546130fd9092919063ffffffff16565b61285c565b6001905092915050565b600d6000611b77612854565b73ffffffffffffffffffffffffffffffffffffffff1673ffffffffffffffffffffffffffffffffffffffff168152602001908152602001600020548110611bf3576040517f08c379a0000000000000000000000000000000000000000000000000000000008152600401611bea9061454b565b60405180910390fd5b611bfc81613152565b611c0d611c07612854565b82612ed7565b50565b60008060149054906101000a900460ff1615611c2b57600080fd5b611c3d611c36612854565b8484612a27565b6001905092915050565b6000806000600460019054906101000a900473ffffffffffffffffffffffffffffffffffffffff1673ffffffffffffffffffffffffffffffffffffffff1663feaf968c6040518163ffffffff1660e01b815260040160a06040518083038186803b158015611cb457600080fd5b505afa158015611cc8573d6000803e3d6000fd5b505050506040513d601f19601f82011682018060405250810190611cec9190613d0b565b5093505092505060008111611d36576040517f08c379a0000000000000000000000000000000000000000000000000000000008152600401611d2d9061466b565b60405180910390fd5b819250505090565b6000611d4861335d565b905090565b6000600854905090565b6000611d61611912565b611da0576040517f08c379a0000000000000000000000000000000000000000000000000000000008152600401611d979061448b565b60405180910390fd5b81600560006101000a81548173ffffffffffffffffffffffffffffffffffffffff021916908373ffffffffffffffffffffffffffffffffffffffff1602179055507f72b8fa2cdfda9fd288b8054c99ff614cad42201788f78cef5a2b64271057f56b60405160405180910390a160019050919050565b60075481565b6000611e26611912565b611e65576040517f08c379a0000000000000000000000000000000000000000000000000000000008152600401611e5c9061448b565b60405180910390fd5b8160088190555060019050919050565b6000600e60008473ffffffffffffffffffffffffffffffffffffffff1673ffffffffffffffffffffffffffffffffffffffff16815260200190815260200160002060008373ffffffffffffffffffffffffffffffffffffffff1673ffffffffffffffffffffffffffffffffffffffff16815260200190815260200160002054905092915050565b6000600d60003073ffffffffffffffffffffffffffffffffffffffff1673ffffffffffffffffffffffffffffffffffffffff16815260200190815260200160002054905090565b611f4b613acc565b6000806040518060400160405280600081526020016001600260008873ffffffffffffffffffffffffffffffffffffffff1673ffffffffffffffffffffffffffffffffffffffff1681526020019081526020016000205481548110611fd9577f4e487b7100000000000000000000000000000000000000000000000000000000600052603260045260246000fd5b9060005260206000209060020201600101805480602002602001604051908101604052809291908181526020016000905b828210156120b057838290600052602060002090600402016040518060800160405290816000820160009054906101000a900473ffffffffffffffffffffffffffffffffffffffff1673ffffffffffffffffffffffffffffffffffffffff1673ffffffffffffffffffffffffffffffffffffffff16815260200160018201548152602001600282015481526020016003820154815250508152602001906001019061200a565b50505050815250905060005b8160200151518110156121d35760006121188360200151838151811061210b577f4e487b7100000000000000000000000000000000000000000000000000000000600052603260045260246000fd5b60200260200101516133ec565b90508083602001518381518110612158577f4e487b7100000000000000000000000000000000000000000000000000000000600052603260045260246000fd5b60200260200101516060018181525050826020015182815181106121a5577f4e487b7100000000000000000000000000000000000000000000000000000000600052603260045260246000fd5b602002602001015160200151846121bc91906148cd565b9350506001816121cc91906148cd565b90506120bc565b50818160000181815250508092505050919050565b60006121f2611912565b612231576040517f08c379a00000000000000000000000000000000000000000000000000000000081526004016122289061448b565b60405180910390fd5b8160078190555060019050919050565b6000803411612285576040517f08c379a000000000000000000000000000000000000000000000000000000000815260040161227c9061458b565b60405180910390fd5b600061229c6007543461342e90919063ffffffff16565b90506000600660009054906101000a900473ffffffffffffffffffffffffffffffffffffffff1673ffffffffffffffffffffffffffffffffffffffff166370a08231306040518263ffffffff1660e01b81526004016122fb9190614381565b60206040518083038186803b15801561231357600080fd5b505afa158015612327573d6000803e3d6000fd5b505050506040513d601f19601f8201168201806040525081019061234b9190613ca6565b905081811015612390576040517f08c379a0000000000000000000000000000000000000000000000000000000008152600401612387906145eb565b60405180910390fd5b600460009054906101000a900460ff1661253557600073ffffffffffffffffffffffffffffffffffffffff168473ffffffffffffffffffffffffffffffffffffffff161415801561240d57503073ffffffffffffffffffffffffffffffffffffffff168473ffffffffffffffffffffffffffffffffffffffff1614155b1561253457600061243c606461242e6008548661342e90919063ffffffff16565b61344490919063ffffffff16565b90506000600660009054906101000a900473ffffffffffffffffffffffffffffffffffffffff1673ffffffffffffffffffffffffffffffffffffffff1663a9059cbb87846040518363ffffffff1660e01b815260040161249d9291906143d3565b602060405180830381600087803b1580156124b757600080fd5b505af11580156124cb573d6000803e3d6000fd5b505050506040513d601f19601f820116820180604052508101906124ef9190613c54565b905080612531576040517f08c379a00000000000000000000000000000000000000000000000000000000081526004016125289061476b565b60405180910390fd5b50505b5b6000600660009054906101000a900473ffffffffffffffffffffffffffffffffffffffff1673ffffffffffffffffffffffffffffffffffffffff1663a9059cbb61257d612854565b856040518363ffffffff1660e01b815260040161259b9291906143d3565b602060405180830381600087803b1580156125b557600080fd5b505af11580156125c9573d6000803e3d6000fd5b505050506040513d601f19601f820116820180604052508101906125ed9190613c54565b90508061262f576040517f08c379a00000000000000000000000000000000000000000000000000000000081526004016126269061472b565b60405180910390fd5b7f0a37b72bb67eee30e09084cf386f8a17817c57f620c3ab95fb25d6a20356ec77612658612854565b3485604051612669939291906143fc565b60405180910390a1829350505050919050565b6000612686611912565b6126c5576040517f08c379a00000000000000000000000000000000000000000000000000000000081526004016126bc9061448b565b60405180910390fd5b600460009054906101000a900460ff166126de57600080fd5b6000600460006101000a81548160ff0219169083151502179055507f595bc32e5728c63c01ea315b1551197d7ef1f90e53baf942ecb565882b12224e60405160405180910390a16001905090565b6000612738838361345a565b905061274b612745612854565b82612d4d565b505050565b612758611912565b612797576040517f08c379a000000000000000000000000000000000000000000000000000000000815260040161278e9061448b565b60405180910390fd5b6127a081613853565b50565b60006127ad611912565b6127ec576040517f08c379a00000000000000000000000000000000000000000000000000000000081526004016127e39061448b565b60405180910390fd5b600060159054906101000a900460ff161561280657600080fd5b6001600060156101000a81548160ff0219169083151502179055507f162f57a76d20e070181ba79606ac37a5de200a08232f207ce4c3d1c4028b616760405160405180910390a16001905090565b600033905090565b600073ffffffffffffffffffffffffffffffffffffffff168373ffffffffffffffffffffffffffffffffffffffff1614156128cc576040517f08c379a00000000000000000000000000000000000000000000000000000000081526004016128c39061478b565b60405180910390fd5b600073ffffffffffffffffffffffffffffffffffffffff168273ffffffffffffffffffffffffffffffffffffffff16141561293c576040517f08c379a0000000000000000000000000000000000000000000000000000000008152600401612933906145ab565b60405180910390fd5b80600e60008573ffffffffffffffffffffffffffffffffffffffff1673ffffffffffffffffffffffffffffffffffffffff16815260200190815260200160002060008473ffffffffffffffffffffffffffffffffffffffff1673ffffffffffffffffffffffffffffffffffffffff168152602001908152602001600020819055508173ffffffffffffffffffffffffffffffffffffffff168373ffffffffffffffffffffffffffffffffffffffff167f8c5be1e5ebec7d5bd14f71427d1e84f3dd0314c0f7b2291e5b200ac8c7c3b92583604051612a1a91906147ef565b60405180910390a3505050565b600073ffffffffffffffffffffffffffffffffffffffff168373ffffffffffffffffffffffffffffffffffffffff161415612a97576040517f08c379a0000000000000000000000000000000000000000000000000000000008152600401612a8e906146cb565b60405180910390fd5b600073ffffffffffffffffffffffffffffffffffffffff168273ffffffffffffffffffffffffffffffffffffffff161415612b07576040517f08c379a0000000000000000000000000000000000000000000000000000000008152600401612afe9061462b565b60405180910390fd5b80600d60008573ffffffffffffffffffffffffffffffffffffffff1673ffffffffffffffffffffffffffffffffffffffff168152602001908152602001600020541015612b89576040517f08c379a0000000000000000000000000000000000000000000000000000000008152600401612b80906144ab565b60405180910390fd5b612bf58160405180606001604052806029815260200161538160299139600d60008773ffffffffffffffffffffffffffffffffffffffff1673ffffffffffffffffffffffffffffffffffffffff168152602001908152602001600020546130fd9092919063ffffffff16565b600d60008573ffffffffffffffffffffffffffffffffffffffff1673ffffffffffffffffffffffffffffffffffffffff16815260200190815260200160002081905550612c8a81600d60008573ffffffffffffffffffffffffffffffffffffffff1673ffffffffffffffffffffffffffffffffffffffff16815260200190815260200160002054612d3790919063ffffffff16565b600d60008473ffffffffffffffffffffffffffffffffffffffff1673ffffffffffffffffffffffffffffffffffffffff168152602001908152602001600020819055508173ffffffffffffffffffffffffffffffffffffffff168373ffffffffffffffffffffffffffffffffffffffff167fddf252ad1be2c89b69c2b068fc378daa952ba7f163c4a11628f55a4df523b3ef83604051612d2a91906147ef565b60405180910390a3505050565b60008183612d4591906148cd565b905092915050565b600073ffffffffffffffffffffffffffffffffffffffff168273ffffffffffffffffffffffffffffffffffffffff161415612dbd576040517f08c379a0000000000000000000000000000000000000000000000000000000008152600401612db4906144eb565b60405180910390fd5b612dd281600954612d3790919063ffffffff16565b600981905550612e2a81600d60008573ffffffffffffffffffffffffffffffffffffffff1673ffffffffffffffffffffffffffffffffffffffff16815260200190815260200160002054612d3790919063ffffffff16565b600d60008473ffffffffffffffffffffffffffffffffffffffff1673ffffffffffffffffffffffffffffffffffffffff168152602001908152602001600020819055508173ffffffffffffffffffffffffffffffffffffffff16600073ffffffffffffffffffffffffffffffffffffffff167fddf252ad1be2c89b69c2b068fc378daa952ba7f163c4a11628f55a4df523b3ef83604051612ecb91906147ef565b60405180910390a35050565b600073ffffffffffffffffffffffffffffffffffffffff168273ffffffffffffffffffffffffffffffffffffffff161415612f47576040517f08c379a0000000000000000000000000000000000000000000000000000000008152600401612f3e9061450b565b60405180910390fd5b80600d60008473ffffffffffffffffffffffffffffffffffffffff1673ffffffffffffffffffffffffffffffffffffffff168152602001908152602001600020541015612fc9576040517f08c379a0000000000000000000000000000000000000000000000000000000008152600401612fc09061464b565b60405180910390fd5b6130358160405180606001604052806025815260200161535c60259139600d60008673ffffffffffffffffffffffffffffffffffffffff1673ffffffffffffffffffffffffffffffffffffffff168152602001908152602001600020546130fd9092919063ffffffff16565b600d60008473ffffffffffffffffffffffffffffffffffffffff1673ffffffffffffffffffffffffffffffffffffffff1681526020019081526020016000208190555061308d8160095461398090919063ffffffff16565b600981905550600073ffffffffffffffffffffffffffffffffffffffff168273ffffffffffffffffffffffffffffffffffffffff167fddf252ad1be2c89b69c2b068fc378daa952ba7f163c4a11628f55a4df523b3ef836040516130f191906147ef565b60405180910390a35050565b6000838311158290613145576040517f08c379a000000000000000000000000000000000000000000000000000000000815260040161313c9190614469565b60405180910390fd5b5082840390509392505050565b60008111613195576040517f08c379a000000000000000000000000000000000000000000000000000000000815260040161318c906146ab565b60405180910390fd5b6000600260003373ffffffffffffffffffffffffffffffffffffffff1673ffffffffffffffffffffffffffffffffffffffff168152602001908152602001600020549050600042905060008214156131f3576131f033613996565b91505b6001828154811061322d577f4e487b7100000000000000000000000000000000000000000000000000000000600052603260045260246000fd5b906000526020600020906002020160010160405180608001604052803373ffffffffffffffffffffffffffffffffffffffff1681526020018581526020018381526020016000815250908060018154018082558091505060019003906000526020600020906004020160009091909190915060008201518160000160006101000a81548173ffffffffffffffffffffffffffffffffffffffff021916908373ffffffffffffffffffffffffffffffffffffffff16021790555060208201518160010155604082015181600201556060820151816003015550503373ffffffffffffffffffffffffffffffffffffffff167fb4caaf29adda3eefee3ad552a8e85058589bf834c7466cae4ee58787f70589ed8484846040516133509392919061480a565b60405180910390a2505050565b6000806000905060005b6001805490508110156133e457600181815481106133ae577f4e487b7100000000000000000000000000000000000000000000000000000000600052603260045260246000fd5b906000526020600020906002020160010180549050826133ce91906148cd565b91506001816133dd91906148cd565b9050613367565b508091505090565b60006003548260200151610e108460400151426134099190614a18565b613413919061498d565b61341d91906149be565b613427919061498d565b9050919050565b6000818361343c91906149be565b905092915050565b60008183613452919061498d565b905092915050565b600080600260003373ffffffffffffffffffffffffffffffffffffffff1673ffffffffffffffffffffffffffffffffffffffff1681526020019081526020016000205490506000600182815481106134db577f4e487b7100000000000000000000000000000000000000000000000000000000600052603260045260246000fd5b90600052602060002090600202016001018481548110613524577f4e487b7100000000000000000000000000000000000000000000000000000000600052603260045260246000fd5b90600052602060002090600402016040518060800160405290816000820160009054906101000a900473ffffffffffffffffffffffffffffffffffffffff1673ffffffffffffffffffffffffffffffffffffffff1673ffffffffffffffffffffffffffffffffffffffff1681526020016001820154815260200160028201548152602001600382015481525050905084816020015110156135fa576040517f08c379a00000000000000000000000000000000000000000000000000000000081526004016135f19061474b565b60405180910390fd5b6000613605826133ec565b90508582602001516136179190614a18565b8260200181815250506000826020015114156137055760018381548110613667577f4e487b7100000000000000000000000000000000000000000000000000000000600052603260045260246000fd5b906000526020600020906002020160010185815481106136b0577f4e487b7100000000000000000000000000000000000000000000000000000000600052603260045260246000fd5b9060005260206000209060040201600080820160006101000a81549073ffffffffffffffffffffffffffffffffffffffff0219169055600182016000905560028201600090556003820160009055505061383c565b816020015160018481548110613744577f4e487b7100000000000000000000000000000000000000000000000000000000600052603260045260246000fd5b9060005260206000209060020201600101868154811061378d577f4e487b7100000000000000000000000000000000000000000000000000000000600052603260045260246000fd5b90600052602060002090600402016001018190555042600184815481106137dd577f4e487b7100000000000000000000000000000000000000000000000000000000600052603260045260246000fd5b90600052602060002090600202016001018681548110613826577f4e487b7100000000000000000000000000000000000000000000000000000000600052603260045260246000fd5b9060005260206000209060040201600201819055505b808661384891906148cd565b935050505092915050565b600073ffffffffffffffffffffffffffffffffffffffff168173ffffffffffffffffffffffffffffffffffffffff1614156138c3576040517f08c379a00000000000000000000000000000000000000000000000000000000081526004016138ba9061448b565b60405180910390fd5b8073ffffffffffffffffffffffffffffffffffffffff1660008054906101000a900473ffffffffffffffffffffffffffffffffffffffff1673ffffffffffffffffffffffffffffffffffffffff167f8be0079c531659141344cd1fd0a4f28419497f9722a3daafe3b4186f6b6457e060405160405180910390a3806000806101000a81548173ffffffffffffffffffffffffffffffffffffffff021916908373ffffffffffffffffffffffffffffffffffffffff16021790555050565b6000818361398e9190614a18565b905092915050565b600060018081600181540180825580915050039060005260206000209050506000600180805490506139c89190614a18565b90508260018281548110613a05577f4e487b7100000000000000000000000000000000000000000000000000000000600052603260045260246000fd5b906000526020600020906002020160000160006101000a81548173ffffffffffffffffffffffffffffffffffffffff021916908373ffffffffffffffffffffffffffffffffffffffff16021790555080600260008573ffffffffffffffffffffffffffffffffffffffff1673ffffffffffffffffffffffffffffffffffffffff1681526020019081526020016000208190555080915050919050565b604051806080016040528060008152602001600060ff16815260200160608152602001606081525090565b604051806040016040528060008152602001606081525090565b600081359050613af5816152c0565b92915050565b600081519050613b0a816152d7565b92915050565b600081519050613b1f816152ee565b92915050565b600081359050613b3481615305565b92915050565b600081519050613b4981615305565b92915050565b600081519050613b5e8161531c565b92915050565b600060208284031215613b7657600080fd5b6000613b8484828501613ae6565b91505092915050565b60008060408385031215613ba057600080fd5b6000613bae85828601613ae6565b9250506020613bbf85828601613ae6565b9150509250929050565b600080600060608486031215613bde57600080fd5b6000613bec86828701613ae6565b9350506020613bfd86828701613ae6565b9250506040613c0e86828701613b25565b9150509250925092565b60008060408385031215613c2b57600080fd5b6000613c3985828601613ae6565b9250506020613c4a85828601613b25565b9150509250929050565b600060208284031215613c6657600080fd5b6000613c7484828501613afb565b91505092915050565b600060208284031215613c8f57600080fd5b6000613c9d84828501613b25565b91505092915050565b600060208284031215613cb857600080fd5b6000613cc684828501613b3a565b91505092915050565b60008060408385031215613ce257600080fd5b6000613cf085828601613b25565b9250506020613d0185828601613b25565b9150509250929050565b600080600080600060a08688031215613d2357600080fd5b6000613d3188828901613b4f565b9550506020613d4288828901613b10565b9450506040613d5388828901613b3a565b9350506060613d6488828901613b3a565b9250506080613d7588828901613b4f565b9150509295509295909350565b6000613d8e8383614234565b60808301905092915050565b613da381614a4c565b82525050565b613db281614a4c565b82525050565b6000613dc38261486c565b613dcd818561488f565b9350613dd88361485c565b8060005b83811015613e09578151613df08882613d82565b9750613dfb83614882565b925050600181019050613ddc565b5085935050505092915050565b613e1f81614a5e565b82525050565b613e2e81614a6a565b82525050565b6000613e3f82614877565b613e4981856148ab565b9350613e59818560208601614ac1565b613e6281614bb3565b840191505092915050565b6000613e7882614877565b613e8281856148bc565b9350613e92818560208601614ac1565b613e9b81614bb3565b840191505092915050565b6000613eb3602a836148bc565b9150613ebe82614bc4565b604082019050919050565b6000613ed66034836148bc565b9150613ee182614c13565b604082019050919050565b6000613ef96036836148bc565b9150613f0482614c62565b604082019050919050565b6000613f1c6025836148bc565b9150613f2782614cb1565b604082019050919050565b6000613f3f6027836148bc565b9150613f4a82614d00565b604082019050919050565b6000613f626040836148bc565b9150613f6d82614d4f565b604082019050919050565b6000613f856028836148bc565b9150613f9082614d9e565b604082019050919050565b6000613fa86034836148bc565b9150613fb382614ded565b604082019050919050565b6000613fcb601d836148bc565b9150613fd682614e3c565b602082019050919050565b6000613fee602b836148bc565b9150613ff982614e65565b604082019050919050565b6000614011602d836148bc565b915061401c82614eb4565b604082019050919050565b60006140346034836148bc565b915061403f82614f03565b604082019050919050565b6000614057602c836148bc565b915061406282614f52565b604082019050919050565b600061407a6022836148bc565b915061408582614fa1565b604082019050919050565b600061409d6030836148bc565b91506140a882614ff0565b604082019050919050565b60006140c06012836148bc565b91506140cb8261503f565b602082019050919050565b60006140e3602d836148bc565b91506140ee82615068565b604082019050919050565b60006141066014836148bc565b9150614111826150b7565b602082019050919050565b60006141296024836148bc565b9150614134826150e0565b604082019050919050565b600061414c6000836148a0565b91506141578261512f565b600082019050919050565b600061416f6021836148bc565b915061417a82615132565b604082019050919050565b6000614192601e836148bc565b915061419d82615181565b602082019050919050565b60006141b56020836148bc565b91506141c0826151aa565b602082019050919050565b60006141d86032836148bc565b91506141e3826151d3565b604082019050919050565b60006141fb6036836148bc565b915061420682615222565b604082019050919050565b600061421e6032836148bc565b915061422982615271565b604082019050919050565b60808201600082015161424a6000850182613d9a565b50602082015161425d6020850182614330565b5060408201516142706040850182614330565b5060608201516142836060850182614330565b50505050565b60006040830160008301516142a16000860182614330565b50602083015184820360208601526142b98282613db8565b9150508091505092915050565b60006080830160008301516142de6000860182614330565b5060208301516142f1602086018261434e565b50604083015184820360408601526143098282613e34565b915050606083015184820360608601526143238282613e34565b9150508091505092915050565b61433981614a94565b82525050565b61434881614a94565b82525050565b61435781614a9e565b82525050565b61436681614a9e565b82525050565b60006143778261413f565b9150819050919050565b60006020820190506143966000830184613da9565b92915050565b60006060820190506143b16000830186613da9565b6143be6020830185613da9565b6143cb604083018461433f565b949350505050565b60006040820190506143e86000830185613da9565b6143f5602083018461433f565b9392505050565b60006060820190506144116000830186613da9565b61441e602083018561433f565b61442b604083018461433f565b949350505050565b60006020820190506144486000830184613e16565b92915050565b60006020820190506144636000830184613e25565b92915050565b600060208201905081810360008301526144838184613e6d565b905092915050565b600060208201905081810360008301526144a481613ea6565b9050919050565b600060208201905081810360008301526144c481613ec9565b9050919050565b600060208201905081810360008301526144e481613eec565b9050919050565b6000602082019050818103600083015261450481613f0f565b9050919050565b6000602082019050818103600083015261452481613f32565b9050919050565b6000602082019050818103600083015261454481613f55565b9050919050565b6000602082019050818103600083015261456481613f78565b9050919050565b6000602082019050818103600083015261458481613f9b565b9050919050565b600060208201905081810360008301526145a481613fbe565b9050919050565b600060208201905081810360008301526145c481613fe1565b9050919050565b600060208201905081810360008301526145e481614004565b9050919050565b6000602082019050818103600083015261460481614027565b9050919050565b600060208201905081810360008301526146248161404a565b9050919050565b600060208201905081810360008301526146448161406d565b9050919050565b6000602082019050818103600083015261466481614090565b9050919050565b60006020820190508181036000830152614684816140b3565b9050919050565b600060208201905081810360008301526146a4816140d6565b9050919050565b600060208201905081810360008301526146c4816140f9565b9050919050565b600060208201905081810360008301526146e48161411c565b9050919050565b6000602082019050818103600083015261470481614162565b9050919050565b6000602082019050818103600083015261472481614185565b9050919050565b60006020820190508181036000830152614744816141a8565b9050919050565b60006020820190508181036000830152614764816141cb565b9050919050565b60006020820190508181036000830152614784816141ee565b9050919050565b600060208201905081810360008301526147a481614211565b9050919050565b600060208201905081810360008301526147c58184614289565b905092915050565b600060208201905081810360008301526147e781846142c6565b905092915050565b6000602082019050614804600083018461433f565b92915050565b600060608201905061481f600083018661433f565b61482c602083018561433f565b614839604083018461433f565b949350505050565b6000602082019050614856600083018461435d565b92915050565b6000819050602082019050919050565b600081519050919050565b600081519050919050565b6000602082019050919050565b600082825260208201905092915050565b600081905092915050565b600082825260208201905092915050565b600082825260208201905092915050565b60006148d882614a94565b91506148e383614a94565b9250827fffffffffffffffffffffffffffffffffffffffffffffffffffffffffffffffff0382111561491857614917614b26565b5b828201905092915050565b600061492e82614a6a565b915061493983614a6a565b92508261494957614948614b55565b5b600160000383147f80000000000000000000000000000000000000000000000000000000000000008314161561498257614981614b26565b5b828205905092915050565b600061499882614a94565b91506149a383614a94565b9250826149b3576149b2614b55565b5b828204905092915050565b60006149c982614a94565b91506149d483614a94565b9250817fffffffffffffffffffffffffffffffffffffffffffffffffffffffffffffffff0483118215151615614a0d57614a0c614b26565b5b828202905092915050565b6000614a2382614a94565b9150614a2e83614a94565b925082821015614a4157614a40614b26565b5b828203905092915050565b6000614a5782614a74565b9050919050565b60008115159050919050565b6000819050919050565b600073ffffffffffffffffffffffffffffffffffffffff82169050919050565b6000819050919050565b600060ff82169050919050565b600069ffffffffffffffffffff82169050919050565b60005b83811015614adf578082015181840152602081019050614ac4565b83811115614aee576000848401525b50505050565b60006002820490506001821680614b0c57607f821691505b60208210811415614b2057614b1f614b84565b5b50919050565b7f4e487b7100000000000000000000000000000000000000000000000000000000600052601160045260246000fd5b7f4e487b7100000000000000000000000000000000000000000000000000000000600052601260045260246000fd5b7f4e487b7100000000000000000000000000000000000000000000000000000000600052602260045260246000fd5b6000601f19601f8301169050919050565b7f4f776e61626c653a206f6e6c79206f776e65722063616e2063616c6c2074686960008201527f732066756e6374696f6e00000000000000000000000000000000000000000000602082015250565b7f446576546f6b656e3a2063616e74207472616e73666572206d6f72652074686160008201527f6e20796f7572206163636f756e7420686f6c6473000000000000000000000000602082015250565b7f56656e646f7220686173206e6f7420656e6f7567682066756e647320746f206160008201527f6363657074207468652073656c6c207265717565737400000000000000000000602082015250565b7f446576546f6b656e3a2063616e6e6f74206d696e7420746f207a65726f20616460008201527f6472657373000000000000000000000000000000000000000000000000000000602082015250565b7f446576546f6b656e3a2063616e6e6f74206275726e2066726f6d207a65726f2060008201527f6164647265737300000000000000000000000000000000000000000000000000602082015250565b7f596f75722062616c616e6365206973206c6f776572207468616e20746865206160008201527f6d6f756e74206f6620746f6b656e7320796f752077616e7420746f2073656c6c602082015250565b7f446576546f6b656e3a2043616e6e6f74207374616b65206d6f7265207468616e60008201527f20796f75206f776e000000000000000000000000000000000000000000000000602082015250565b7f446576546f6b656e3a20596f752063616e6e6f74207370656e6420746861742060008201527f6d756368206f6e2074686973206163636f756e74000000000000000000000000602082015250565b7f53656e64204d4154494320746f2062757920736f6d6520746f6b656e73000000600082015250565b7f446576546f6b656e3a20617070726f76652063616e6e6f7420626520746f207a60008201527f65726f2061646472657373000000000000000000000000000000000000000000602082015250565b7f4661696c656420746f207472616e7366657220746f6b656e732066726f6d207560008201527f73657220746f2076656e646f7200000000000000000000000000000000000000602082015250565b7f56656e646f7220636f6e747261637420686173206e6f7420656e6f756768207460008201527f6f6b656e7320696e206974732062616c616e6365000000000000000000000000602082015250565b7f5370656369667920616e20616d6f756e74206f6620746f6b656e20677265617460008201527f6572207468616e207a65726f0000000000000000000000000000000000000000602082015250565b7f446576546f6b656e3a207472616e7366657220746f207a65726f20616464726560008201527f7373000000000000000000000000000000000000000000000000000000000000602082015250565b7f446576546f6b656e3a2043616e6e6f74206275726e206d6f7265207468616e2060008201527f746865206163636f756e74206f776e7300000000000000000000000000000000602082015250565b7f526f756e64206e6f7420636f6d706c6574650000000000000000000000000000600082015250565b7f4661696c656420746f2073656e6420757365722062616c616e6365206261636b60008201527f20746f20746865206f776e657200000000000000000000000000000000000000602082015250565b7f43616e6e6f74207374616b65206e6f7468696e67000000000000000000000000600082015250565b7f446576546f6b656e3a207472616e736665722066726f6d207a65726f2061646460008201527f7265737300000000000000000000000000000000000000000000000000000000602082015250565b50565b7f4f776e657220686173206e6f742062616c616e636520746f207769746864726160008201527f7700000000000000000000000000000000000000000000000000000000000000602082015250565b7f4661696c656420746f2073656e642045544820746f2074686520757365720000600082015250565b7f4661696c656420746f207472616e7366657220746f6b656e20746f2075736572600082015250565b7f5374616b696e673a2043616e6e6f74207769746864726177206d6f726520746860008201527f616e20796f752068617665207374616b65640000000000000000000000000000602082015250565b7f436f6d6d697373696f6e20496e7669746572204661696c656420746f2074726160008201527f6e7366657220746f6b656e20746f20696e766974657200000000000000000000602082015250565b7f446576546f6b656e3a20617070726f76652063616e6e6f7420626520646f6e6560008201527f2066726f6d207a65726f20616464726573730000000000000000000000000000602082015250565b6152c981614a4c565b81146152d457600080fd5b50565b6152e081614a5e565b81146152eb57600080fd5b50565b6152f781614a6a565b811461530257600080fd5b50565b61530e81614a94565b811461531957600080fd5b50565b61532581614aab565b811461533057600080fd5b5056fe444556544f4b454e3a2064656372656173656420616c6c6f77616e63652062656c6f77207a65726f446576546f6b656e3a206275726e20616d6f756e7420657863656564732062616c616e6365444556544f4b454e3a207472616e7366657220616d6f756e7420657863656564732062616c616e6365a26469706673582212208d8b34e969223983905cb801d31bffb30fc26791d422488ebcfdc950a410b71464736f6c63430008040033",
  "immutableReferences": {},
  "source": "// SPDX-License-Identifier: MIT\npragma solidity ^0.8.4;\n\n// helpers\nimport \"./Ownable.sol\";\nimport \"./SafeMath.sol\";\nimport \"./Pausable.sol\";\nimport \"./Context.sol\";\nimport \"./PriceConsumerV3.sol\";\nimport \"./PausableSell.sol\";\n\n// contract\nimport \"./Stakeable.sol\";\nimport \"./Vendor.sol\";\n\n/**\n * @notice DevToken is a development token that we use to learn how to code solidity\n * and what X interface requires\n */\ncontract DevToken is\n    Context,\n    Ownable,\n    Pausable,\n    PausableSell,\n    Stakeable,\n    PriceConsumerV3,\n    Vendor\n{\n    using SafeMath for uint256;\n\n    /**\n     * @notice Our Tokens required variables that are needed to operate everything\n     */\n    uint256 private _totalSupply;\n    uint8 private _decimals;\n    string private _symbol;\n    string private _name;\n\n    /**\n     * @notice _balances is a mapping that contains a address as KEY\n     * and the balance of the address as the value\n     */\n    mapping(address => uint256) private _balances;\n\n    /**\n     * @notice _allowances is used to manage and control allownace\n     * An allowance is the right to use another accounts balance, or part of it\n     */\n    mapping(address => mapping(address => uint256)) private _allowances;\n\n    /**\n     * @notice Events are created below.\n     * Transfer event is a event that notify the blockchain that a transfer of assets has taken place\n     *\n     */\n    event Transfer(address indexed from, address indexed to, uint256 value);\n\n    /**\n     * @notice Approval is emitted when a new Spender is approved to spend Tokens on\n     * the Owners account\n     */\n    event Approval(\n        address indexed owner,\n        address indexed spender,\n        uint256 value\n    );\n\n    struct infoToken {\n        uint256 _totalSupply;\n        uint8 _decimals;\n        string _symbol;\n        string _name;\n    }\n\n    /**\n     * @notice constructor will be triggered when we create the Smart contract\n     * _name = name of the token\n     * _short_symbol = Short Symbol name for the token\n     * token_decimals = The decimal precision of the Token, defaults 18\n     * _totalSupply is how much Tokens there are totally\n     */\n\n    // Referral(10000, 500, 1 days, true, [6000, 3000, 1000], [1, 10000])\n    constructor(\n        string memory token_name,\n        string memory short_symbol,\n        uint8 token_decimals,\n        uint256 token_totalSupply\n    ) Vendor(address(this)) {\n        _name = token_name;\n        _symbol = short_symbol;\n        _decimals = token_decimals;\n\n        _totalSupply = token_totalSupply * (uint256(10)**_decimals);\n        _balances[owner()] = _totalSupply;\n\n        emit Transfer(address(0), address(this), _totalSupply);\n    }\n\n    /**\n     * @notice we get the token information\n     */\n    function getInfoToken()\n        external\n        view\n        returns (infoToken memory _propertyObj)\n    {\n        return infoToken(_totalSupply, _decimals, _symbol, _name);\n    }\n\n    /**\n     * @notice decimals will return the number of decimal precision the Token is deployed with\n     */\n    function decimals() external view returns (uint8) {\n        return _decimals;\n    }\n\n    /**\n     * @notice symbol will return the Token's symbol\n     */\n    function symbol() external view returns (string memory) {\n        return _symbol;\n    }\n\n    /**\n     * @notice name will return the Token's symbol\n     */\n    function name() external view returns (string memory) {\n        return _name;\n    }\n\n    /**\n     * @notice totalSupply will return the tokens total supply of tokens\n     */\n    function totalSupply() external view returns (uint256) {\n        return _totalSupply;\n    }\n\n    /**\n     * @notice balanceOf will return the account balance for the given account\n     */\n    function balanceOf(address account) external view returns (uint256) {\n        return _balances[account];\n    }\n\n    /*\n     *   obtiene el balanace actual del contrato\n     */\n\n    function balanceOfContract() public view returns (uint256) {\n        return _balances[address(this)];\n    }\n\n    /**\n     * @notice _mint will create tokens on the address inputted and then increase the total supply\n     *\n     * It will also emit an Transfer event, with sender set to zero address (adress(0))\n     *\n     * Requires that the address that is recieveing the tokens is not zero address\n     */\n    function _mint(address account, uint256 amount) internal {\n        require(account != address(0), \"DevToken: cannot mint to zero address\");\n\n        // Increase total supply\n        _totalSupply = _totalSupply.add(amount);\n\n        // Add amount to the account balance using the balance mapping\n        _balances[account] = _balances[account].add(amount);\n\n        // Emit our event to log the action\n        emit Transfer(address(0), account, amount);\n    }\n\n    /**\n     * @notice _burn will destroy tokens from an address inputted and then decrease total supply\n     * An Transfer event will emit with receiever set to zero address\n     *\n     * Requires\n     * - Account cannot be zero\n     * - Account balance has to be bigger or equal to amount\n     */\n    function _burn(address account, uint256 amount) internal {\n        require(\n            account != address(0),\n            \"DevToken: cannot burn from zero address\"\n        );\n        require(\n            _balances[account] >= amount,\n            \"DevToken: Cannot burn more than the account owns\"\n        );\n\n        // Remove the amount from the account balance\n        _balances[account] = _balances[account].sub(\n            amount,\n            \"DevToken: burn amount exceeds balance\"\n        );\n\n        // Decrease totalSupply\n        _totalSupply = _totalSupply.sub(amount);\n\n        // Emit event, use zero address as reciever\n        emit Transfer(account, address(0), amount);\n    }\n\n    /**\n     * @notice burn is used to destroy tokens on an address\n     *\n     * See {_burn}\n     * Requires\n     *   - msg.sender must be the token owner\n     *\n     */\n    function burn(address account, uint256 amount)\n        public\n        onlyOwner\n        returns (bool)\n    {\n        _burn(account, amount);\n        return true;\n    }\n\n    /**\n     * @notice mint is used to create tokens and assign them to msg.sender\n     *\n     * See {_mint}\n     * Requires\n     *   - msg.sender must be the token owner\n     *\n     */\n    function mint(address account, uint256 amount)\n        public\n        onlyOwner\n        returns (bool)\n    {\n        _mint(account, amount);\n        return true;\n    }\n\n    /**\n     * @notice transfer is used to transfer funds from the sender to the recipient\n     * This function is only callable from outside the contract. For internal usage see\n     * _transfer\n     *\n     * Requires\n     * - Caller cannot be zero\n     * - Caller must have a balance = or bigger than amount\n     *\n     */\n    function transfer(address recipient, uint256 amount)\n        external\n        whenNotPaused\n        returns (bool)\n    {\n        _transfer(_msgSender(), recipient, amount);\n        return true;\n    }\n\n    /**\n     * @notice _transfer is used for internal transfers\n     *\n     * Events\n     * - Transfer\n     *\n     * Requires\n     *  - Sender cannot be zero\n     *  - recipient cannot be zero\n     *  - sender balance most be = or bigger than amount\n     */\n    function _transfer(\n        address sender,\n        address recipient,\n        uint256 amount\n    ) internal {\n        require(sender != address(0), \"DevToken: transfer from zero address\");\n        require(recipient != address(0), \"DevToken: transfer to zero address\");\n        require(\n            _balances[sender] >= amount,\n            \"DevToken: cant transfer more than your account holds\"\n        );\n\n        _balances[sender] = _balances[sender].sub(\n            amount,\n            \"DEVTOKEN: transfer amount exceeds balance\"\n        );\n\n        _balances[recipient] = _balances[recipient].add(amount);\n\n        emit Transfer(sender, recipient, amount);\n    }\n\n    /**\n     * @notice getOwner just calls Ownables owner function.\n     * returns owner of the token\n     *\n     */\n    function getOwner() external view returns (address) {\n        return owner();\n    }\n\n    /**\n     * @notice allowance is used view how much allowance an spender has\n     */\n    function allowance(address owner, address spender)\n        external\n        view\n        returns (uint256)\n    {\n        return _allowances[owner][spender];\n    }\n\n    /**\n     * @notice approve will use the senders address and allow the spender to use X amount of tokens on his behalf\n     */\n    function approve(address spender, uint256 amount)\n        external\n        whenNotPaused\n        returns (bool)\n    {\n        _approve(_msgSender(), spender, amount);\n        return true;\n    }\n\n    /**\n     * @notice _approve is used to add a new Spender to a Owners account\n     *\n     * Events\n     *   - {Approval}\n     *\n     * Requires\n     *   - owner and spender cannot be zero address\n     */\n    function _approve(\n        address owner,\n        address spender,\n        uint256 amount\n    ) internal {\n        require(\n            owner != address(0),\n            \"DevToken: approve cannot be done from zero address\"\n        );\n        require(\n            spender != address(0),\n            \"DevToken: approve cannot be to zero address\"\n        );\n\n        // Set the allowance of the spender address at the Owner mapping over accounts to the amount\n        _allowances[owner][spender] = amount;\n\n        emit Approval(owner, spender, amount);\n    }\n\n    /**\n     * @notice transferFrom is uesd to transfer Tokens from a Accounts allowance\n     * Spender address should be the token holder\n     *\n     * Requires\n     *   - The caller must have a allowance = or bigger than the amount spending\n     */\n\n    function transferFrom(\n        address sender,\n        address recipient,\n        uint256 amount\n    ) external whenNotPaused returns (bool) {\n        _transfer(sender, recipient, amount);\n\n        uint256 currentAllowance = _allowances[sender][_msgSender()];\n        require(\n            currentAllowance >= amount,\n            \"DevToken: You cannot spend that much on this account\"\n        );\n        unchecked {\n            _approve(sender, _msgSender(), currentAllowance - amount);\n        }\n\n        return true;\n    }\n\n    /**\n     * @notice increaseAllowance\n     * Adds allowance to a account from the function caller address\n     */\n    function increaseAllowance(address spender, uint256 addedValue)\n        public\n        whenNotPaused\n        returns (bool)\n    {\n        _approve(\n            _msgSender(),\n            spender,\n            _allowances[_msgSender()][spender].add(addedValue)\n        );\n\n        return true;\n    }\n\n    /**\n     * @notice decreaseAllowance\n     * Decrease the allowance on the account inputted from the caller address\n     */\n    function decreaseAllowance(address spender, uint256 subtractedValue)\n        public\n        whenNotPaused\n        returns (bool)\n    {\n        _approve(\n            _msgSender(),\n            spender,\n            _allowances[_msgSender()][spender].sub(\n                subtractedValue,\n                \"DEVTOKEN: decreased allowance below zero\"\n            )\n        );\n\n        return true;\n    }\n\n    // ---------- STAKES ----------\n\n    /**\n     * Add functionality like burn to the _stake afunction\n     *\n     */\n    function stake(uint256 _amount) public {\n        // Make sure staker actually is good for it\n        require(\n            _amount < _balances[_msgSender()],\n            \"DevToken: Cannot stake more than you own\"\n        );\n\n        _stake(_amount);\n\n        // Burn the amount of tokens on the sender\n        _burn(_msgSender(), _amount);\n    }\n\n    /**\n     * @notice withdrawStake is used to withdraw stakes from the account holder\n     */\n    function withdrawStake(uint256 amount, uint256 stake_index) public {\n        uint256 amount_to_mint = _withdrawStake(amount, stake_index);\n        // Return staked tokens to user\n        _mint(_msgSender(), amount_to_mint);\n    }\n\n    /**\n     * @notice A method to the aggregated stakes from all stakeholders.\n     * @return uint256 The aggregated stakes from all stakeholders.\n     */\n\n    function totalStakes() public view returns (uint256) {\n        return _totalStakes();\n    }\n}\n",
  "sourcePath": "/Users/itsjuniorrojas/Projects/Dapp/3-mindTokens/MINDP-token/contracts/DevToken.sol",
  "compiler": {
    "name": "solc",
    "version": "0.8.4+commit.c7e474f2.Emscripten.clang"
  },
  "schemaVersion": "3.4.3",
  "updatedAt": "2021-12-02T02:06:34.645Z",
  "networkType": "ethereum",
  "devdoc": {
    "kind": "dev",
    "methods": {
      "SellStatusPause()": {
        "details": "used to check if the contract is paused"
      },
      "Sellpause()": {
        "details": "called by the owner to pause, triggers stopped state"
      },
      "Sellunpause()": {
        "details": "called by the owner to unpause, returns to normal state"
      },
      "changePreSaleCommission(uint256)": {
        "details": "cambiar el precio de los tokens"
      },
      "changeTokenPerEth(uint256)": {
        "details": "cambiar el precio de los tokens"
      },
      "getStatusPause()": {
        "details": "used to check if the contract is paused"
      },
      "isOwner()": {
        "details": "Returns true if the caller is the current owner."
      },
      "owner()": {
        "details": "Returns the address of the current owner."
      },
      "pause()": {
        "details": "called by the owner to pause, triggers stopped state"
      },
      "pausePresale()": {
        "details": "called by the owner to pause, triggers stopped state"
      },
      "renounceOwnership()": {
        "details": "Leaves the contract without owner. It will not be possible to call `onlyOwner` functions anymore. Can only be called by the current owner. NOTE: Renouncing ownership will leave the contract without an owner, thereby removing any functionality that is only available to the owner."
      },
      "totalStakes()": {
        "returns": {
          "_0": "uint256 The aggregated stakes from all stakeholders."
        }
      },
      "transferOwnership(address)": {
        "details": "Transfers ownership of the contract to a new account (`newOwner`). Can only be called by the current owner."
      },
      "unpause()": {
        "details": "called by the owner to unpause, returns to normal state"
      },
      "unpausePresale()": {
        "details": "called by the owner to unpause, returns to normal state"
      }
    },
    "version": 1
  },
  "userdoc": {
    "events": {
      "Approval(address,address,uint256)": {
        "notice": "Approval is emitted when a new Spender is approved to spend Tokens on the Owners account"
      },
      "Staked(address,uint256,uint256,uint256)": {
        "notice": "Staked event is triggered whenever a user stakes tokens, address is indexed to make it filterable"
      },
      "Transfer(address,address,uint256)": {
        "notice": "Events are created below. Transfer event is a event that notify the blockchain that a transfer of assets has taken place"
      }
    },
    "kind": "user",
    "methods": {
      "allowance(address,address)": {
        "notice": "allowance is used view how much allowance an spender has"
      },
      "approve(address,uint256)": {
        "notice": "approve will use the senders address and allow the spender to use X amount of tokens on his behalf"
      },
      "balanceOf(address)": {
        "notice": "balanceOf will return the account balance for the given account"
      },
      "burn(address,uint256)": {
        "notice": "burn is used to destroy tokens on an address See {_burn} Requires   - msg.sender must be the token owner"
      },
      "buyTokens(address)": {
        "notice": "Allow users to buy tokens for ETH"
      },
      "constructor": {
        "notice": "constructor will be triggered when we create the Smart contract _name = name of the token _short_symbol = Short Symbol name for the token token_decimals = The decimal precision of the Token, defaults 18 _totalSupply is how much Tokens there are totally"
      },
      "decimals()": {
        "notice": "decimals will return the number of decimal precision the Token is deployed with"
      },
      "decreaseAllowance(address,uint256)": {
        "notice": "decreaseAllowance Decrease the allowance on the account inputted from the caller address"
      },
      "getEthUsd()": {
        "notice": "Returns the latest price"
      },
      "getInfoToken()": {
        "notice": "we get the token information"
      },
      "getOwner()": {
        "notice": "getOwner just calls Ownables owner function. returns owner of the token"
      },
      "getPreSaleCommission()": {
        "notice": "obtener el precio del token"
      },
      "getTokenPerEth()": {
        "notice": "obtener el precio del token"
      },
      "hasStake(address)": {
        "notice": "hasStake is used to check if a account has stakes and the total amount along with all the seperate stakes"
      },
      "increaseAllowance(address,uint256)": {
        "notice": "increaseAllowance Adds allowance to a account from the function caller address"
      },
      "mint(address,uint256)": {
        "notice": "mint is used to create tokens and assign them to msg.sender See {_mint} Requires   - msg.sender must be the token owner"
      },
      "name()": {
        "notice": "name will return the Token's symbol"
      },
      "sellTokens(uint256)": {
        "notice": "Allow users to sell tokens for ETH"
      },
      "stake(uint256)": {
        "notice": "Add functionality like burn to the _stake afunction"
      },
      "symbol()": {
        "notice": "symbol will return the Token's symbol"
      },
      "tokensPerEth()": {
        "notice": "rewardPerHour is 1000 because it is used to represent 0.001, since we only use integer numbers"
      },
      "totalStakes()": {
        "notice": "A method to the aggregated stakes from all stakeholders."
      },
      "totalSupply()": {
        "notice": "totalSupply will return the tokens total supply of tokens"
      },
      "transfer(address,uint256)": {
        "notice": "transfer is used to transfer funds from the sender to the recipient This function is only callable from outside the contract. For internal usage see _transfer Requires - Caller cannot be zero - Caller must have a balance = or bigger than amount"
      },
      "transferFrom(address,address,uint256)": {
        "notice": "transferFrom is uesd to transfer Tokens from a Accounts allowance Spender address should be the token holder Requires   - The caller must have a allowance = or bigger than the amount spending"
      },
      "withdraw()": {
        "notice": "Allow the owner of the contract to withdraw ETH"
      },
      "withdrawStake(uint256,uint256)": {
        "notice": "withdrawStake is used to withdraw stakes from the account holder"
      }
    },
    "notice": "DevToken is a development token that we use to learn how to code solidity and what X interface requires",
    "version": 1
  }
}