{
  "_format": "hh-sol-artifact-1",
  "contractName": "HostileSquirrel",
  "sourceName": "contracts/HostileSquirrel.sol",
  "abi": [
    {
      "inputs": [],
      "stateMutability": "nonpayable",
      "type": "constructor"
    },
    {
      "inputs": [],
      "name": "ApprovalCallerNotOwnerNorApproved",
      "type": "error"
    },
    {
      "inputs": [],
      "name": "ApprovalQueryForNonexistentToken",
      "type": "error"
    },
    {
      "inputs": [],
      "name": "ApprovalToCurrentOwner",
      "type": "error"
    },
    {
      "inputs": [],
      "name": "ApproveToCaller",
      "type": "error"
    },
    {
      "inputs": [],
      "name": "BalanceQueryForZeroAddress",
      "type": "error"
    },
    {
      "inputs": [],
      "name": "MintToZeroAddress",
      "type": "error"
    },
    {
      "inputs": [],
      "name": "MintZeroQuantity",
      "type": "error"
    },
    {
      "inputs": [],
      "name": "OwnerQueryForNonexistentToken",
      "type": "error"
    },
    {
      "inputs": [],
      "name": "TransferCallerNotOwnerNorApproved",
      "type": "error"
    },
    {
      "inputs": [],
      "name": "TransferFromIncorrectOwner",
      "type": "error"
    },
    {
      "inputs": [],
      "name": "TransferToNonERC721ReceiverImplementer",
      "type": "error"
    },
    {
      "inputs": [],
      "name": "TransferToZeroAddress",
      "type": "error"
    },
    {
      "inputs": [],
      "name": "URIQueryForNonexistentToken",
      "type": "error"
    },
    {
      "anonymous": false,
      "inputs": [
        {
          "indexed": true,
          "internalType": "address",
          "name": "owner",
          "type": "address"
        },
        {
          "indexed": true,
          "internalType": "address",
          "name": "approved",
          "type": "address"
        },
        {
          "indexed": true,
          "internalType": "uint256",
          "name": "tokenId",
          "type": "uint256"
        }
      ],
      "name": "Approval",
      "type": "event"
    },
    {
      "anonymous": false,
      "inputs": [
        {
          "indexed": true,
          "internalType": "address",
          "name": "owner",
          "type": "address"
        },
        {
          "indexed": true,
          "internalType": "address",
          "name": "operator",
          "type": "address"
        },
        {
          "indexed": false,
          "internalType": "bool",
          "name": "approved",
          "type": "bool"
        }
      ],
      "name": "ApprovalForAll",
      "type": "event"
    },
    {
      "anonymous": false,
      "inputs": [
        {
          "indexed": true,
          "internalType": "address",
          "name": "previousOwner",
          "type": "address"
        },
        {
          "indexed": true,
          "internalType": "address",
          "name": "newOwner",
          "type": "address"
        }
      ],
      "name": "OwnershipTransferred",
      "type": "event"
    },
    {
      "anonymous": false,
      "inputs": [
        {
          "indexed": true,
          "internalType": "address",
          "name": "from",
          "type": "address"
        },
        {
          "indexed": true,
          "internalType": "address",
          "name": "to",
          "type": "address"
        },
        {
          "indexed": true,
          "internalType": "uint256",
          "name": "tokenId",
          "type": "uint256"
        }
      ],
      "name": "Transfer",
      "type": "event"
    },
    {
      "inputs": [],
      "name": "MAX_MINT_PER_TX",
      "outputs": [
        {
          "internalType": "uint256",
          "name": "",
          "type": "uint256"
        }
      ],
      "stateMutability": "view",
      "type": "function"
    },
    {
      "inputs": [],
      "name": "MAX_PRESALE_SUPPLY",
      "outputs": [
        {
          "internalType": "uint256",
          "name": "",
          "type": "uint256"
        }
      ],
      "stateMutability": "view",
      "type": "function"
    },
    {
      "inputs": [],
      "name": "MAX_SUPPLY",
      "outputs": [
        {
          "internalType": "uint256",
          "name": "",
          "type": "uint256"
        }
      ],
      "stateMutability": "view",
      "type": "function"
    },
    {
      "inputs": [
        {
          "internalType": "address",
          "name": "to",
          "type": "address"
        },
        {
          "internalType": "uint256",
          "name": "tokenId",
          "type": "uint256"
        }
      ],
      "name": "approve",
      "outputs": [],
      "stateMutability": "nonpayable",
      "type": "function"
    },
    {
      "inputs": [
        {
          "internalType": "address",
          "name": "owner",
          "type": "address"
        }
      ],
      "name": "balanceOf",
      "outputs": [
        {
          "internalType": "uint256",
          "name": "",
          "type": "uint256"
        }
      ],
      "stateMutability": "view",
      "type": "function"
    },
    {
      "inputs": [],
      "name": "baseTokenURI",
      "outputs": [
        {
          "internalType": "string",
          "name": "",
          "type": "string"
        }
      ],
      "stateMutability": "view",
      "type": "function"
    },
    {
      "inputs": [
        {
          "internalType": "address[]",
          "name": "_a",
          "type": "address[]"
        },
        {
          "internalType": "uint256[]",
          "name": "_amount",
          "type": "uint256[]"
        }
      ],
      "name": "editWhitelistReserved",
      "outputs": [],
      "stateMutability": "nonpayable",
      "type": "function"
    },
    {
      "inputs": [
        {
          "internalType": "address",
          "name": "_address",
          "type": "address"
        }
      ],
      "name": "editWhitelistSender",
      "outputs": [
        {
          "internalType": "bool",
          "name": "",
          "type": "bool"
        }
      ],
      "stateMutability": "nonpayable",
      "type": "function"
    },
    {
      "inputs": [
        {
          "internalType": "uint256",
          "name": "tokenId",
          "type": "uint256"
        }
      ],
      "name": "getApproved",
      "outputs": [
        {
          "internalType": "address",
          "name": "",
          "type": "address"
        }
      ],
      "stateMutability": "view",
      "type": "function"
    },
    {
      "inputs": [
        {
          "internalType": "address",
          "name": "_a",
          "type": "address"
        }
      ],
      "name": "getRaffleRegistration",
      "outputs": [
        {
          "internalType": "bool",
          "name": "",
          "type": "bool"
        }
      ],
      "stateMutability": "view",
      "type": "function"
    },
    {
      "inputs": [
        {
          "internalType": "address",
          "name": "_a",
          "type": "address"
        }
      ],
      "name": "getWhitelistReserved",
      "outputs": [
        {
          "internalType": "uint256",
          "name": "",
          "type": "uint256"
        }
      ],
      "stateMutability": "view",
      "type": "function"
    },
    {
      "inputs": [],
      "name": "initial_price",
      "outputs": [
        {
          "internalType": "uint256",
          "name": "",
          "type": "uint256"
        }
      ],
      "stateMutability": "view",
      "type": "function"
    },
    {
      "inputs": [
        {
          "internalType": "address",
          "name": "owner",
          "type": "address"
        },
        {
          "internalType": "address",
          "name": "operator",
          "type": "address"
        }
      ],
      "name": "isApprovedForAll",
      "outputs": [
        {
          "internalType": "bool",
          "name": "",
          "type": "bool"
        }
      ],
      "stateMutability": "view",
      "type": "function"
    },
    {
      "inputs": [
        {
          "internalType": "uint256",
          "name": "_amount",
          "type": "uint256"
        }
      ],
      "name": "mintPresale",
      "outputs": [],
      "stateMutability": "payable",
      "type": "function"
    },
    {
      "inputs": [
        {
          "internalType": "uint256",
          "name": "_amount",
          "type": "uint256"
        }
      ],
      "name": "mintRaffle",
      "outputs": [],
      "stateMutability": "payable",
      "type": "function"
    },
    {
      "inputs": [],
      "name": "mintRaffleActive",
      "outputs": [
        {
          "internalType": "bool",
          "name": "",
          "type": "bool"
        }
      ],
      "stateMutability": "view",
      "type": "function"
    },
    {
      "inputs": [
        {
          "internalType": "address",
          "name": "_address",
          "type": "address"
        },
        {
          "internalType": "uint256",
          "name": "_amount",
          "type": "uint256"
        }
      ],
      "name": "mintReserved",
      "outputs": [],
      "stateMutability": "nonpayable",
      "type": "function"
    },
    {
      "inputs": [
        {
          "internalType": "uint256",
          "name": "_amount",
          "type": "uint256"
        }
      ],
      "name": "mintToken",
      "outputs": [],
      "stateMutability": "payable",
      "type": "function"
    },
    {
      "inputs": [
        {
          "internalType": "uint256",
          "name": "_amount",
          "type": "uint256"
        }
      ],
      "name": "mintWhitelist",
      "outputs": [],
      "stateMutability": "payable",
      "type": "function"
    },
    {
      "inputs": [],
      "name": "name",
      "outputs": [
        {
          "internalType": "string",
          "name": "",
          "type": "string"
        }
      ],
      "stateMutability": "view",
      "type": "function"
    },
    {
      "inputs": [],
      "name": "owner",
      "outputs": [
        {
          "internalType": "address",
          "name": "",
          "type": "address"
        }
      ],
      "stateMutability": "view",
      "type": "function"
    },
    {
      "inputs": [
        {
          "internalType": "uint256",
          "name": "tokenId",
          "type": "uint256"
        }
      ],
      "name": "ownerOf",
      "outputs": [
        {
          "internalType": "address",
          "name": "",
          "type": "address"
        }
      ],
      "stateMutability": "view",
      "type": "function"
    },
    {
      "inputs": [],
      "name": "presaleActive",
      "outputs": [
        {
          "internalType": "bool",
          "name": "",
          "type": "bool"
        }
      ],
      "stateMutability": "view",
      "type": "function"
    },
    {
      "inputs": [],
      "name": "price",
      "outputs": [
        {
          "internalType": "uint256",
          "name": "",
          "type": "uint256"
        }
      ],
      "stateMutability": "view",
      "type": "function"
    },
    {
      "inputs": [],
      "name": "raffleActive",
      "outputs": [
        {
          "internalType": "bool",
          "name": "",
          "type": "bool"
        }
      ],
      "stateMutability": "view",
      "type": "function"
    },
    {
      "inputs": [],
      "name": "registerWalletInRaffle",
      "outputs": [
        {
          "internalType": "bool",
          "name": "",
          "type": "bool"
        }
      ],
      "stateMutability": "nonpayable",
      "type": "function"
    },
    {
      "inputs": [],
      "name": "renounceOwnership",
      "outputs": [],
      "stateMutability": "nonpayable",
      "type": "function"
    },
    {
      "inputs": [],
      "name": "reserved",
      "outputs": [
        {
          "internalType": "uint256",
          "name": "",
          "type": "uint256"
        }
      ],
      "stateMutability": "view",
      "type": "function"
    },
    {
      "inputs": [
        {
          "internalType": "address",
          "name": "from",
          "type": "address"
        },
        {
          "internalType": "address",
          "name": "to",
          "type": "address"
        },
        {
          "internalType": "uint256",
          "name": "tokenId",
          "type": "uint256"
        }
      ],
      "name": "safeTransferFrom",
      "outputs": [],
      "stateMutability": "nonpayable",
      "type": "function"
    },
    {
      "inputs": [
        {
          "internalType": "address",
          "name": "from",
          "type": "address"
        },
        {
          "internalType": "address",
          "name": "to",
          "type": "address"
        },
        {
          "internalType": "uint256",
          "name": "tokenId",
          "type": "uint256"
        },
        {
          "internalType": "bytes",
          "name": "_data",
          "type": "bytes"
        }
      ],
      "name": "safeTransferFrom",
      "outputs": [],
      "stateMutability": "nonpayable",
      "type": "function"
    },
    {
      "inputs": [],
      "name": "saleActive",
      "outputs": [
        {
          "internalType": "bool",
          "name": "",
          "type": "bool"
        }
      ],
      "stateMutability": "view",
      "type": "function"
    },
    {
      "inputs": [
        {
          "internalType": "address",
          "name": "operator",
          "type": "address"
        },
        {
          "internalType": "bool",
          "name": "approved",
          "type": "bool"
        }
      ],
      "name": "setApprovalForAll",
      "outputs": [],
      "stateMutability": "nonpayable",
      "type": "function"
    },
    {
      "inputs": [
        {
          "internalType": "string",
          "name": "baseURI",
          "type": "string"
        }
      ],
      "name": "setBaseURI",
      "outputs": [],
      "stateMutability": "nonpayable",
      "type": "function"
    },
    {
      "inputs": [
        {
          "internalType": "bool",
          "name": "val",
          "type": "bool"
        }
      ],
      "name": "setMintRaffleActive",
      "outputs": [],
      "stateMutability": "nonpayable",
      "type": "function"
    },
    {
      "inputs": [
        {
          "internalType": "bool",
          "name": "val",
          "type": "bool"
        }
      ],
      "name": "setPresaleActive",
      "outputs": [],
      "stateMutability": "nonpayable",
      "type": "function"
    },
    {
      "inputs": [
        {
          "internalType": "uint256",
          "name": "newPrice",
          "type": "uint256"
        }
      ],
      "name": "setPrice",
      "outputs": [],
      "stateMutability": "nonpayable",
      "type": "function"
    },
    {
      "inputs": [
        {
          "internalType": "bool",
          "name": "val",
          "type": "bool"
        }
      ],
      "name": "setRaffleActive",
      "outputs": [],
      "stateMutability": "nonpayable",
      "type": "function"
    },
    {
      "inputs": [
        {
          "internalType": "bool",
          "name": "val",
          "type": "bool"
        }
      ],
      "name": "setSaleActive",
      "outputs": [],
      "stateMutability": "nonpayable",
      "type": "function"
    },
    {
      "inputs": [
        {
          "internalType": "bool",
          "name": "val",
          "type": "bool"
        }
      ],
      "name": "setWhitelistActive",
      "outputs": [],
      "stateMutability": "nonpayable",
      "type": "function"
    },
    {
      "inputs": [
        {
          "internalType": "bool",
          "name": "val",
          "type": "bool"
        }
      ],
      "name": "setWhitelistReservedActive",
      "outputs": [],
      "stateMutability": "nonpayable",
      "type": "function"
    },
    {
      "inputs": [
        {
          "internalType": "bytes4",
          "name": "interfaceId",
          "type": "bytes4"
        }
      ],
      "name": "supportsInterface",
      "outputs": [
        {
          "internalType": "bool",
          "name": "",
          "type": "bool"
        }
      ],
      "stateMutability": "view",
      "type": "function"
    },
    {
      "inputs": [],
      "name": "symbol",
      "outputs": [
        {
          "internalType": "string",
          "name": "",
          "type": "string"
        }
      ],
      "stateMutability": "view",
      "type": "function"
    },
    {
      "inputs": [
        {
          "internalType": "uint256",
          "name": "tokenId",
          "type": "uint256"
        }
      ],
      "name": "tokenURI",
      "outputs": [
        {
          "internalType": "string",
          "name": "",
          "type": "string"
        }
      ],
      "stateMutability": "view",
      "type": "function"
    },
    {
      "inputs": [
        {
          "internalType": "address",
          "name": "owner",
          "type": "address"
        }
      ],
      "name": "tokensOfOwner",
      "outputs": [
        {
          "internalType": "uint256[]",
          "name": "",
          "type": "uint256[]"
        }
      ],
      "stateMutability": "view",
      "type": "function"
    },
    {
      "inputs": [],
      "name": "totalSupply",
      "outputs": [
        {
          "internalType": "uint256",
          "name": "",
          "type": "uint256"
        }
      ],
      "stateMutability": "view",
      "type": "function"
    },
    {
      "inputs": [
        {
          "internalType": "address",
          "name": "from",
          "type": "address"
        },
        {
          "internalType": "address",
          "name": "to",
          "type": "address"
        },
        {
          "internalType": "uint256",
          "name": "tokenId",
          "type": "uint256"
        }
      ],
      "name": "transferFrom",
      "outputs": [],
      "stateMutability": "nonpayable",
      "type": "function"
    },
    {
      "inputs": [
        {
          "internalType": "address",
          "name": "newOwner",
          "type": "address"
        }
      ],
      "name": "transferOwnership",
      "outputs": [],
      "stateMutability": "nonpayable",
      "type": "function"
    },
    {
      "inputs": [
        {
          "internalType": "address",
          "name": "",
          "type": "address"
        }
      ],
      "name": "whiteListRaffle",
      "outputs": [
        {
          "internalType": "bool",
          "name": "",
          "type": "bool"
        }
      ],
      "stateMutability": "view",
      "type": "function"
    },
    {
      "inputs": [],
      "name": "whitelistActive",
      "outputs": [
        {
          "internalType": "bool",
          "name": "",
          "type": "bool"
        }
      ],
      "stateMutability": "view",
      "type": "function"
    },
    {
      "inputs": [
        {
          "internalType": "address",
          "name": "",
          "type": "address"
        }
      ],
      "name": "whitelistReserved",
      "outputs": [
        {
          "internalType": "uint256",
          "name": "",
          "type": "uint256"
        }
      ],
      "stateMutability": "view",
      "type": "function"
    },
    {
      "inputs": [],
      "name": "whitelistReservedActive",
      "outputs": [
        {
          "internalType": "bool",
          "name": "",
          "type": "bool"
        }
      ],
      "stateMutability": "view",
      "type": "function"
    },
    {
      "inputs": [],
      "name": "withdraw",
      "outputs": [],
      "stateMutability": "nonpayable",
      "type": "function"
    }
  ],
  "bytecode": "0x60806040526000600960006101000a81548160ff0219169083151502179055506000600960016101000a81548160ff0219169083151502179055506000600960026101000a81548160ff0219169083151502179055506000600960036101000a81548160ff0219169083151502179055506000600960046101000a81548160ff0219169083151502179055506000600960056101000a81548160ff02191690831515021790555061012c600a556830ca024f987b900000600b556040518060600160405280602a815260200162005553602a9139600d9080519060200190620000ea929190620002af565b50348015620000f857600080fd5b506040518060400160405280600781526020017f4a4e4654732031000000000000000000000000000000000000000000000000008152506040518060400160405280600281526020017f4a520000000000000000000000000000000000000000000000000000000000008152506200018562000179620001de60201b60201c565b620001e660201b60201c565b81600390805190602001906200019d929190620002af565b508060049080519060200190620001b6929190620002af565b50620001c7620002aa60201b60201c565b6001819055505050600b54600c81905550620003c4565b600033905090565b60008060009054906101000a900473ffffffffffffffffffffffffffffffffffffffff169050816000806101000a81548173ffffffffffffffffffffffffffffffffffffffff021916908373ffffffffffffffffffffffffffffffffffffffff1602179055508173ffffffffffffffffffffffffffffffffffffffff168173ffffffffffffffffffffffffffffffffffffffff167f8be0079c531659141344cd1fd0a4f28419497f9722a3daafe3b4186f6b6457e060405160405180910390a35050565b600090565b828054620002bd906200038e565b90600052602060002090601f016020900481019282620002e157600085556200032d565b82601f10620002fc57805160ff19168380011785556200032d565b828001600101855582156200032d579182015b828111156200032c5782518255916020019190600101906200030f565b5b5090506200033c919062000340565b5090565b5b808211156200035b57600081600090555060010162000341565b5090565b7f4e487b7100000000000000000000000000000000000000000000000000000000600052602260045260246000fd5b60006002820490506001821680620003a757607f821691505b60208210811415620003be57620003bd6200035f565b5b50919050565b61517f80620003d46000396000f3fe6080604052600436106102ff5760003560e01c80637de55fe111610190578063c3b754dc116100dc578063e985e9c511610095578063f2fde38b1161006f578063f2fde38b14610b79578063f73b30f214610ba2578063f759867a14610bcd578063fe60d12c14610be9576102ff565b8063e985e9c514610aea578063ea54f16514610b27578063f14c0bcc14610b50576102ff565b8063c3b754dc146109d5578063c634d032146109fe578063c746ad4e14610a1a578063c87b56dd14610a57578063c990546914610a94578063d547cfb714610abf576102ff565b806395d89b4111610149578063ab3f5a1a11610123578063ab3f5a1a14610919578063b2b6136214610944578063b88d4fde1461096f578063b9c44f9314610998576102ff565b806395d89b411461089a578063a035b1fe146108c5578063a22cb465146108f0576102ff565b80637de55fe11461078c578063841718a6146107b55780638462151c146107de5780638da5cb5b1461081b5780638ecad7211461084657806391b7f5ed14610871576102ff565b80633f8121a21161024f5780635bfcb111116102085780636b8dc355116101e25780636b8dc355146106d057806370a08231146106fb578063715018a61461073857806372e3a3eb1461074f576102ff565b80635bfcb1111461064c5780636352211e1461066857806368428a1b146106a5576102ff565b80633f8121a21461056157806342842e0e1461058a5780634618163e146105b357806349e4e986146105cf57806353135ca0146105f857806355f804b314610623576102ff565b80630be75e9f116102bc5780632f57bcfe116102965780632f57bcfe146104cb57806332b1b047146104f457806332cb6b0c1461051f5780633ccfd60b1461054a576102ff565b80630be75e9f1461043a57806318160ddd1461047757806323b872dd146104a2576102ff565b806301ffc9a71461030457806302ce58131461034157806306fdde031461036c578063081812fc14610397578063095ea7b3146103d45780630aba6506146103fd575b600080fd5b34801561031057600080fd5b5061032b60048036038101906103269190613c4e565b610c14565b6040516103389190613c96565b60405180910390f35b34801561034d57600080fd5b50610356610cf6565b6040516103639190613c96565b60405180910390f35b34801561037857600080fd5b50610381610d09565b60405161038e9190613d4a565b60405180910390f35b3480156103a357600080fd5b506103be60048036038101906103b99190613da2565b610d9b565b6040516103cb9190613e10565b60405180910390f35b3480156103e057600080fd5b506103fb60048036038101906103f69190613e57565b610e17565b005b34801561040957600080fd5b50610424600480360381019061041f9190613e97565b610f22565b6040516104319190613c96565b60405180910390f35b34801561044657600080fd5b50610461600480360381019061045c9190613e97565b610f78565b60405161046e9190613c96565b60405180910390f35b34801561048357600080fd5b5061048c611017565b6040516104999190613ed3565b60405180910390f35b3480156104ae57600080fd5b506104c960048036038101906104c49190613eee565b61102e565b005b3480156104d757600080fd5b506104f260048036038101906104ed9190613f6d565b61103e565b005b34801561050057600080fd5b506105096110d7565b6040516105169190613c96565b60405180910390f35b34801561052b57600080fd5b506105346110ea565b6040516105419190613ed3565b60405180910390f35b34801561055657600080fd5b5061055f6110f0565b005b34801561056d57600080fd5b5061058860048036038101906105839190613f6d565b61126b565b005b34801561059657600080fd5b506105b160048036038101906105ac9190613eee565b611304565b005b6105cd60048036038101906105c89190613da2565b611324565b005b3480156105db57600080fd5b506105f660048036038101906105f19190613f6d565b61155c565b005b34801561060457600080fd5b5061060d6115f5565b60405161061a9190613c96565b60405180910390f35b34801561062f57600080fd5b5061064a600480360381019061064591906140cf565b611608565b005b61066660048036038101906106619190613da2565b61169e565b005b34801561067457600080fd5b5061068f600480360381019061068a9190613da2565b611847565b60405161069c9190613e10565b60405180910390f35b3480156106b157600080fd5b506106ba61185d565b6040516106c79190613c96565b60405180910390f35b3480156106dc57600080fd5b506106e5611870565b6040516106f29190613ed3565b60405180910390f35b34801561070757600080fd5b50610722600480360381019061071d9190613e97565b611876565b60405161072f9190613ed3565b60405180910390f35b34801561074457600080fd5b5061074d611946565b005b34801561075b57600080fd5b5061077660048036038101906107719190613e97565b6119ce565b6040516107839190613ed3565b60405180910390f35b34801561079857600080fd5b506107b360048036038101906107ae9190613e57565b6119e6565b005b3480156107c157600080fd5b506107dc60048036038101906107d79190613f6d565b611a70565b005b3480156107ea57600080fd5b5061080560048036038101906108009190613e97565b611b09565b60405161081291906141d6565b60405180910390f35b34801561082757600080fd5b50610830611d01565b60405161083d9190613e10565b60405180910390f35b34801561085257600080fd5b5061085b611d2a565b6040516108689190613ed3565b60405180910390f35b34801561087d57600080fd5b5061089860048036038101906108939190613da2565b611d2f565b005b3480156108a657600080fd5b506108af611db5565b6040516108bc9190613d4a565b60405180910390f35b3480156108d157600080fd5b506108da611e47565b6040516108e79190613ed3565b60405180910390f35b3480156108fc57600080fd5b50610917600480360381019061091291906141f8565b611e4d565b005b34801561092557600080fd5b5061092e611fc5565b60405161093b9190613ed3565b60405180910390f35b34801561095057600080fd5b50610959611fcb565b6040516109669190613c96565b60405180910390f35b34801561097b57600080fd5b50610996600480360381019061099191906142d9565b611fde565b005b3480156109a457600080fd5b506109bf60048036038101906109ba9190613e97565b61205a565b6040516109cc9190613c96565b60405180910390f35b3480156109e157600080fd5b506109fc60048036038101906109f79190613f6d565b61207a565b005b610a186004803603810190610a139190613da2565b612113565b005b348015610a2657600080fd5b50610a416004803603810190610a3c9190613e97565b612273565b604051610a4e9190613ed3565b60405180910390f35b348015610a6357600080fd5b50610a7e6004803603810190610a799190613da2565b6122bc565b604051610a8b9190613d4a565b60405180910390f35b348015610aa057600080fd5b50610aa961235b565b604051610ab69190613c96565b60405180910390f35b348015610acb57600080fd5b50610ad461236e565b604051610ae19190613d4a565b60405180910390f35b348015610af657600080fd5b50610b116004803603810190610b0c919061435c565b6123fc565b604051610b1e9190613c96565b60405180910390f35b348015610b3357600080fd5b50610b4e6004803603810190610b499190613f6d565b612490565b005b348015610b5c57600080fd5b50610b776004803603810190610b729190614527565b612529565b005b348015610b8557600080fd5b50610ba06004803603810190610b9b9190613e97565b612641565b005b348015610bae57600080fd5b50610bb7612739565b604051610bc49190613c96565b60405180910390f35b610be76004803603810190610be29190613da2565b61285a565b005b348015610bf557600080fd5b50610bfe6129ba565b604051610c0b9190613ed3565b60405180910390f35b60007f80ac58cd000000000000000000000000000000000000000000000000000000007bffffffffffffffffffffffffffffffffffffffffffffffffffffffff1916827bffffffffffffffffffffffffffffffffffffffffffffffffffffffff19161480610cdf57507f5b5e139f000000000000000000000000000000000000000000000000000000007bffffffffffffffffffffffffffffffffffffffffffffffffffffffff1916827bffffffffffffffffffffffffffffffffffffffffffffffffffffffff1916145b80610cef5750610cee826129c0565b5b9050919050565b600960019054906101000a900460ff1681565b606060038054610d18906145ce565b80601f0160208091040260200160405190810160405280929190818152602001828054610d44906145ce565b8015610d915780601f10610d6657610100808354040283529160200191610d91565b820191906000526020600020905b815481529060010190602001808311610d7457829003601f168201915b5050505050905090565b6000610da682612a2a565b610ddc576040517fcf4700e400000000000000000000000000000000000000000000000000000000815260040160405180910390fd5b6007600083815260200190815260200160002060009054906101000a900473ffffffffffffffffffffffffffffffffffffffff169050919050565b6000610e2282611847565b90508073ffffffffffffffffffffffffffffffffffffffff168373ffffffffffffffffffffffffffffffffffffffff161415610e8a576040517f943f7b8c00000000000000000000000000000000000000000000000000000000815260040160405180910390fd5b8073ffffffffffffffffffffffffffffffffffffffff16610ea9612a78565b73ffffffffffffffffffffffffffffffffffffffff1614158015610edb5750610ed981610ed4612a78565b6123fc565b155b15610f12576040517fcfb3b94200000000000000000000000000000000000000000000000000000000815260040160405180910390fd5b610f1d838383612a80565b505050565b6000600f60008373ffffffffffffffffffffffffffffffffffffffff1673ffffffffffffffffffffffffffffffffffffffff16815260200190815260200160002060009054906101000a900460ff169050919050565b6000600960059054906101000a900460ff16610fc9576040517f08c379a0000000000000000000000000000000000000000000000000000000008152600401610fc09061464c565b60405180910390fd5b6002600e60008473ffffffffffffffffffffffffffffffffffffffff1673ffffffffffffffffffffffffffffffffffffffff1681526020019081526020016000208190555060019050919050565b6000611021612b32565b6002546001540303905090565b611039838383612b37565b505050565b611046612a78565b73ffffffffffffffffffffffffffffffffffffffff16611064611d01565b73ffffffffffffffffffffffffffffffffffffffff16146110ba576040517f08c379a00000000000000000000000000000000000000000000000000000000081526004016110b1906146b8565b60405180910390fd5b80600960026101000a81548160ff02191690831515021790555050565b600960039054906101000a900460ff1681565b610d0281565b6110f8612a78565b73ffffffffffffffffffffffffffffffffffffffff16611116611d01565b73ffffffffffffffffffffffffffffffffffffffff161461116c576040517f08c379a0000000000000000000000000000000000000000000000000000000008152600401611163906146b8565b60405180910390fd5b6000479050600081116111b4576040517f08c379a00000000000000000000000000000000000000000000000000000000081526004016111ab9061474a565b60405180910390fd5b60006111be612a78565b73ffffffffffffffffffffffffffffffffffffffff16476040516111e19061479b565b60006040518083038185875af1925050503d806000811461121e576040519150601f19603f3d011682016040523d82523d6000602084013e611223565b606091505b5050905080611267576040517f08c379a000000000000000000000000000000000000000000000000000000000815260040161125e90614822565b60405180910390fd5b5050565b611273612a78565b73ffffffffffffffffffffffffffffffffffffffff16611291611d01565b73ffffffffffffffffffffffffffffffffffffffff16146112e7576040517f08c379a00000000000000000000000000000000000000000000000000000000081526004016112de906146b8565b60405180910390fd5b80600960046101000a81548160ff02191690831515021790555050565b61131f83838360405180602001604052806000815250611fde565b505050565b600061132e611017565b90506000600e600061133e612a78565b73ffffffffffffffffffffffffffffffffffffffff1673ffffffffffffffffffffffffffffffffffffffff168152602001908152602001600020549050600960019054906101000a900460ff166113ca576040517f08c379a00000000000000000000000000000000000000000000000000000000081526004016113c19061488e565b60405180910390fd5b6000811161140d576040517f08c379a000000000000000000000000000000000000000000000000000000000815260040161140490614920565b60405180910390fd5b80831115611450576040517f08c379a00000000000000000000000000000000000000000000000000000000081526004016114479061498c565b60405180910390fd5b610d02838361145f91906149db565b11156114a0576040517f08c379a000000000000000000000000000000000000000000000000000000000815260040161149790614a7d565b60405180910390fd5b82600c546114ae9190614a9d565b3410156114f0576040517f08c379a00000000000000000000000000000000000000000000000000000000081526004016114e790614b43565b60405180910390fd5b82816114fc9190614b63565b600e6000611508612a78565b73ffffffffffffffffffffffffffffffffffffffff1673ffffffffffffffffffffffffffffffffffffffff16815260200190815260200160002081905550611557611551612a78565b84613028565b505050565b611564612a78565b73ffffffffffffffffffffffffffffffffffffffff16611582611d01565b73ffffffffffffffffffffffffffffffffffffffff16146115d8576040517f08c379a00000000000000000000000000000000000000000000000000000000081526004016115cf906146b8565b60405180910390fd5b80600960036101000a81548160ff02191690831515021790555050565b600960049054906101000a900460ff1681565b611610612a78565b73ffffffffffffffffffffffffffffffffffffffff1661162e611d01565b73ffffffffffffffffffffffffffffffffffffffff1614611684576040517f08c379a000000000000000000000000000000000000000000000000000000000815260040161167b906146b8565b60405180910390fd5b80600d908051906020019061169a929190613afc565b5050565b600960039054906101000a900460ff166116ed576040517f08c379a00000000000000000000000000000000000000000000000000000000081526004016116e490614be3565b60405180910390fd5b60006116f7611017565b90506000600f6000611707612a78565b73ffffffffffffffffffffffffffffffffffffffff1673ffffffffffffffffffffffffffffffffffffffff16815260200190815260200160002060009054906101000a900460ff16905080611791576040517f08c379a000000000000000000000000000000000000000000000000000000000815260040161178890614c4f565b60405180910390fd5b610d0283836117a091906149db565b11156117e1576040517f08c379a00000000000000000000000000000000000000000000000000000000081526004016117d890614a7d565b60405180910390fd5b82600c546117ef9190614a9d565b341015611831576040517f08c379a000000000000000000000000000000000000000000000000000000000815260040161182890614b43565b60405180910390fd5b61184261183c612a78565b84613028565b505050565b600061185282613046565b600001519050919050565b600960009054906101000a900460ff1681565b61014a81565b60008073ffffffffffffffffffffffffffffffffffffffff168273ffffffffffffffffffffffffffffffffffffffff1614156118de576040517f8f4eb60400000000000000000000000000000000000000000000000000000000815260040160405180910390fd5b600660008373ffffffffffffffffffffffffffffffffffffffff1673ffffffffffffffffffffffffffffffffffffffff16815260200190815260200160002060000160009054906101000a900467ffffffffffffffff1667ffffffffffffffff169050919050565b61194e612a78565b73ffffffffffffffffffffffffffffffffffffffff1661196c611d01565b73ffffffffffffffffffffffffffffffffffffffff16146119c2576040517f08c379a00000000000000000000000000000000000000000000000000000000081526004016119b9906146b8565b60405180910390fd5b6119cc60006132d5565b565b600e6020528060005260406000206000915090505481565b6119ee612a78565b73ffffffffffffffffffffffffffffffffffffffff16611a0c611d01565b73ffffffffffffffffffffffffffffffffffffffff1614611a62576040517f08c379a0000000000000000000000000000000000000000000000000000000008152600401611a59906146b8565b60405180910390fd5b611a6c8282613028565b5050565b611a78612a78565b73ffffffffffffffffffffffffffffffffffffffff16611a96611d01565b73ffffffffffffffffffffffffffffffffffffffff1614611aec576040517f08c379a0000000000000000000000000000000000000000000000000000000008152600401611ae3906146b8565b60405180910390fd5b80600960006101000a81548160ff02191690831515021790555050565b60606000611b1683611876565b67ffffffffffffffff811115611b2f57611b2e613fa4565b5b604051908082528060200260200182016040528015611b5d5781602001602082028036833780820191505090505b5090506000600154905060008060005b83811015611cf4576000600560008381526020019081526020016000206040518060600160405290816000820160009054906101000a900473ffffffffffffffffffffffffffffffffffffffff1673ffffffffffffffffffffffffffffffffffffffff1673ffffffffffffffffffffffffffffffffffffffff1681526020016000820160149054906101000a900467ffffffffffffffff1667ffffffffffffffff1667ffffffffffffffff16815260200160008201601c9054906101000a900460ff1615151515815250509050806040015115611c4a5750611ce7565b600073ffffffffffffffffffffffffffffffffffffffff16816000015173ffffffffffffffffffffffffffffffffffffffff1614611c8a57806000015192505b8773ffffffffffffffffffffffffffffffffffffffff168373ffffffffffffffffffffffffffffffffffffffff161415611ce55781868580600101965081518110611cd857611cd7614c6f565b5b6020026020010181815250505b505b8080600101915050611b6d565b5083945050505050919050565b60008060009054906101000a900473ffffffffffffffffffffffffffffffffffffffff16905090565b606481565b611d37612a78565b73ffffffffffffffffffffffffffffffffffffffff16611d55611d01565b73ffffffffffffffffffffffffffffffffffffffff1614611dab576040517f08c379a0000000000000000000000000000000000000000000000000000000008152600401611da2906146b8565b60405180910390fd5b80600c8190555050565b606060048054611dc4906145ce565b80601f0160208091040260200160405190810160405280929190818152602001828054611df0906145ce565b8015611e3d5780601f10611e1257610100808354040283529160200191611e3d565b820191906000526020600020905b815481529060010190602001808311611e2057829003601f168201915b5050505050905090565b600c5481565b611e55612a78565b73ffffffffffffffffffffffffffffffffffffffff168273ffffffffffffffffffffffffffffffffffffffff161415611eba576040517fb06307db00000000000000000000000000000000000000000000000000000000815260040160405180910390fd5b8060086000611ec7612a78565b73ffffffffffffffffffffffffffffffffffffffff1673ffffffffffffffffffffffffffffffffffffffff16815260200190815260200160002060008473ffffffffffffffffffffffffffffffffffffffff1673ffffffffffffffffffffffffffffffffffffffff16815260200190815260200160002060006101000a81548160ff0219169083151502179055508173ffffffffffffffffffffffffffffffffffffffff16611f74612a78565b73ffffffffffffffffffffffffffffffffffffffff167f17307eab39ab6107e8899845ad3d59bd9653f200f220920489ca2b5937696c3183604051611fb99190613c96565b60405180910390a35050565b600b5481565b600960059054906101000a900460ff1681565b611fe9848484612b37565b6120088373ffffffffffffffffffffffffffffffffffffffff16613399565b801561201d575061201b848484846133bc565b155b15612054576040517fd1a57ed600000000000000000000000000000000000000000000000000000000815260040160405180910390fd5b50505050565b600f6020528060005260406000206000915054906101000a900460ff1681565b612082612a78565b73ffffffffffffffffffffffffffffffffffffffff166120a0611d01565b73ffffffffffffffffffffffffffffffffffffffff16146120f6576040517f08c379a00000000000000000000000000000000000000000000000000000000081526004016120ed906146b8565b60405180910390fd5b80600960016101000a81548160ff02191690831515021790555050565b600061211d611017565b9050600960009054906101000a900460ff1661216e576040517f08c379a000000000000000000000000000000000000000000000000000000000815260040161216590614cea565b60405180910390fd5b60008211801561217f575060648211155b6121be576040517f08c379a00000000000000000000000000000000000000000000000000000000081526004016121b590614d7c565b60405180910390fd5b610d0282826121cd91906149db565b111561220e576040517f08c379a000000000000000000000000000000000000000000000000000000000815260040161220590614a7d565b60405180910390fd5b81600c5461221c9190614a9d565b34101561225e576040517f08c379a000000000000000000000000000000000000000000000000000000000815260040161225590614b43565b60405180910390fd5b61226f612269612a78565b83613028565b5050565b6000600e60008373ffffffffffffffffffffffffffffffffffffffff1673ffffffffffffffffffffffffffffffffffffffff168152602001908152602001600020549050919050565b60606122c782612a2a565b6122fd576040517fa14c4b5000000000000000000000000000000000000000000000000000000000815260040160405180910390fd5b600061230761351c565b90506000815114156123285760405180602001604052806000815250612353565b80612332846135ae565b604051602001612343929190614dd8565b6040516020818303038152906040525b915050919050565b600960029054906101000a900460ff1681565b600d805461237b906145ce565b80601f01602080910402602001604051908101604052809291908181526020018280546123a7906145ce565b80156123f45780601f106123c9576101008083540402835291602001916123f4565b820191906000526020600020905b8154815290600101906020018083116123d757829003601f168201915b505050505081565b6000600860008473ffffffffffffffffffffffffffffffffffffffff1673ffffffffffffffffffffffffffffffffffffffff16815260200190815260200160002060008373ffffffffffffffffffffffffffffffffffffffff1673ffffffffffffffffffffffffffffffffffffffff16815260200190815260200160002060009054906101000a900460ff16905092915050565b612498612a78565b73ffffffffffffffffffffffffffffffffffffffff166124b6611d01565b73ffffffffffffffffffffffffffffffffffffffff161461250c576040517f08c379a0000000000000000000000000000000000000000000000000000000008152600401612503906146b8565b60405180910390fd5b80600960056101000a81548160ff02191690831515021790555050565b612531612a78565b73ffffffffffffffffffffffffffffffffffffffff1661254f611d01565b73ffffffffffffffffffffffffffffffffffffffff16146125a5576040517f08c379a000000000000000000000000000000000000000000000000000000000815260040161259c906146b8565b60405180910390fd5b60005b825181101561263c578181815181106125c4576125c3614c6f565b5b6020026020010151600e60008584815181106125e3576125e2614c6f565b5b602002602001015173ffffffffffffffffffffffffffffffffffffffff1673ffffffffffffffffffffffffffffffffffffffff16815260200190815260200160002081905550808061263490614dfc565b9150506125a8565b505050565b612649612a78565b73ffffffffffffffffffffffffffffffffffffffff16612667611d01565b73ffffffffffffffffffffffffffffffffffffffff16146126bd576040517f08c379a00000000000000000000000000000000000000000000000000000000081526004016126b4906146b8565b60405180910390fd5b600073ffffffffffffffffffffffffffffffffffffffff168173ffffffffffffffffffffffffffffffffffffffff16141561272d576040517f08c379a000000000000000000000000000000000000000000000000000000000815260040161272490614eb7565b60405180910390fd5b612736816132d5565b50565b6000600960029054906101000a900460ff1661278a576040517f08c379a000000000000000000000000000000000000000000000000000000000815260040161278190614f23565b60405180910390fd5b6000600f6000612798612a78565b73ffffffffffffffffffffffffffffffffffffffff1673ffffffffffffffffffffffffffffffffffffffff16815260200190815260200160002060009054906101000a900460ff16905080156127f2576000915050612857565b6001600f6000612800612a78565b73ffffffffffffffffffffffffffffffffffffffff1673ffffffffffffffffffffffffffffffffffffffff16815260200190815260200160002060006101000a81548160ff02191690831515021790555060019150505b90565b6000612864611017565b9050600960049054906101000a900460ff166128b5576040517f08c379a00000000000000000000000000000000000000000000000000000000081526004016128ac90614cea565b60405180910390fd5b6000821180156128c6575060648211155b612905576040517f08c379a00000000000000000000000000000000000000000000000000000000081526004016128fc90614fb5565b60405180910390fd5b61014a828261291491906149db565b1115612955576040517f08c379a000000000000000000000000000000000000000000000000000000000815260040161294c90614a7d565b60405180910390fd5b81600c546129639190614a9d565b3410156129a5576040517f08c379a000000000000000000000000000000000000000000000000000000000815260040161299c90614b43565b60405180910390fd5b6129b66129b0612a78565b83613028565b5050565b600a5481565b60007f01ffc9a7000000000000000000000000000000000000000000000000000000007bffffffffffffffffffffffffffffffffffffffffffffffffffffffff1916827bffffffffffffffffffffffffffffffffffffffffffffffffffffffff1916149050919050565b600081612a35612b32565b11158015612a44575060015482105b8015612a71575060056000838152602001908152602001600020600001601c9054906101000a900460ff16155b9050919050565b600033905090565b826007600084815260200190815260200160002060006101000a81548173ffffffffffffffffffffffffffffffffffffffff021916908373ffffffffffffffffffffffffffffffffffffffff160217905550818373ffffffffffffffffffffffffffffffffffffffff168273ffffffffffffffffffffffffffffffffffffffff167f8c5be1e5ebec7d5bd14f71427d1e84f3dd0314c0f7b2291e5b200ac8c7c3b92560405160405180910390a4505050565b600090565b6000612b4282613046565b90506000816000015173ffffffffffffffffffffffffffffffffffffffff16612b69612a78565b73ffffffffffffffffffffffffffffffffffffffff161480612b9c5750612b9b8260000151612b96612a78565b6123fc565b5b80612be15750612baa612a78565b73ffffffffffffffffffffffffffffffffffffffff16612bc984610d9b565b73ffffffffffffffffffffffffffffffffffffffff16145b905080612c1a576040517f59c896be00000000000000000000000000000000000000000000000000000000815260040160405180910390fd5b8473ffffffffffffffffffffffffffffffffffffffff16826000015173ffffffffffffffffffffffffffffffffffffffff1614612c83576040517fa114810000000000000000000000000000000000000000000000000000000000815260040160405180910390fd5b600073ffffffffffffffffffffffffffffffffffffffff168473ffffffffffffffffffffffffffffffffffffffff161415612cea576040517fea553b3400000000000000000000000000000000000000000000000000000000815260040160405180910390fd5b612cf7858585600161370f565b612d076000848460000151612a80565b6001600660008773ffffffffffffffffffffffffffffffffffffffff1673ffffffffffffffffffffffffffffffffffffffff16815260200190815260200160002060000160008282829054906101000a900467ffffffffffffffff160392506101000a81548167ffffffffffffffff021916908367ffffffffffffffff1602179055506001600660008673ffffffffffffffffffffffffffffffffffffffff1673ffffffffffffffffffffffffffffffffffffffff16815260200190815260200160002060000160008282829054906101000a900467ffffffffffffffff160192506101000a81548167ffffffffffffffff021916908367ffffffffffffffff160217905550836005600085815260200190815260200160002060000160006101000a81548173ffffffffffffffffffffffffffffffffffffffff021916908373ffffffffffffffffffffffffffffffffffffffff160217905550426005600085815260200190815260200160002060000160146101000a81548167ffffffffffffffff021916908367ffffffffffffffff1602179055506000600184019050600073ffffffffffffffffffffffffffffffffffffffff166005600083815260200190815260200160002060000160009054906101000a900473ffffffffffffffffffffffffffffffffffffffff1673ffffffffffffffffffffffffffffffffffffffff161415612fb857600154811015612fb75782600001516005600083815260200190815260200160002060000160006101000a81548173ffffffffffffffffffffffffffffffffffffffff021916908373ffffffffffffffffffffffffffffffffffffffff16021790555082602001516005600083815260200190815260200160002060000160146101000a81548167ffffffffffffffff021916908367ffffffffffffffff1602179055505b5b50828473ffffffffffffffffffffffffffffffffffffffff168673ffffffffffffffffffffffffffffffffffffffff167fddf252ad1be2c89b69c2b068fc378daa952ba7f163c4a11628f55a4df523b3ef60405160405180910390a46130218585856001613715565b5050505050565b61304282826040518060200160405280600081525061371b565b5050565b61304e613b82565b60008290508061305c612b32565b1115801561306b575060015481105b1561329e576000600560008381526020019081526020016000206040518060600160405290816000820160009054906101000a900473ffffffffffffffffffffffffffffffffffffffff1673ffffffffffffffffffffffffffffffffffffffff1673ffffffffffffffffffffffffffffffffffffffff1681526020016000820160149054906101000a900467ffffffffffffffff1667ffffffffffffffff1667ffffffffffffffff16815260200160008201601c9054906101000a900460ff1615151515815250509050806040015161329c57600073ffffffffffffffffffffffffffffffffffffffff16816000015173ffffffffffffffffffffffffffffffffffffffff16146131805780925050506132d0565b5b60011561329b57818060019003925050600560008381526020019081526020016000206040518060600160405290816000820160009054906101000a900473ffffffffffffffffffffffffffffffffffffffff1673ffffffffffffffffffffffffffffffffffffffff1673ffffffffffffffffffffffffffffffffffffffff1681526020016000820160149054906101000a900467ffffffffffffffff1667ffffffffffffffff1667ffffffffffffffff16815260200160008201601c9054906101000a900460ff1615151515815250509050600073ffffffffffffffffffffffffffffffffffffffff16816000015173ffffffffffffffffffffffffffffffffffffffff16146132965780925050506132d0565b613181565b5b505b6040517fdf2d9b4200000000000000000000000000000000000000000000000000000000815260040160405180910390fd5b919050565b60008060009054906101000a900473ffffffffffffffffffffffffffffffffffffffff169050816000806101000a81548173ffffffffffffffffffffffffffffffffffffffff021916908373ffffffffffffffffffffffffffffffffffffffff1602179055508173ffffffffffffffffffffffffffffffffffffffff168173ffffffffffffffffffffffffffffffffffffffff167f8be0079c531659141344cd1fd0a4f28419497f9722a3daafe3b4186f6b6457e060405160405180910390a35050565b6000808273ffffffffffffffffffffffffffffffffffffffff163b119050919050565b60008373ffffffffffffffffffffffffffffffffffffffff1663150b7a026133e2612a78565b8786866040518563ffffffff1660e01b8152600401613404949392919061502a565b602060405180830381600087803b15801561341e57600080fd5b505af192505050801561344f57506040513d601f19601f8201168201806040525081019061344c919061508b565b60015b6134c9573d806000811461347f576040519150601f19603f3d011682016040523d82523d6000602084013e613484565b606091505b506000815114156134c1576040517fd1a57ed600000000000000000000000000000000000000000000000000000000815260040160405180910390fd5b805181602001fd5b63150b7a0260e01b7bffffffffffffffffffffffffffffffffffffffffffffffffffffffff1916817bffffffffffffffffffffffffffffffffffffffffffffffffffffffff191614915050949350505050565b6060600d805461352b906145ce565b80601f0160208091040260200160405190810160405280929190818152602001828054613557906145ce565b80156135a45780601f10613579576101008083540402835291602001916135a4565b820191906000526020600020905b81548152906001019060200180831161358757829003601f168201915b5050505050905090565b606060008214156135f6576040518060400160405280600181526020017f3000000000000000000000000000000000000000000000000000000000000000815250905061370a565b600082905060005b6000821461362857808061361190614dfc565b915050600a8261362191906150e7565b91506135fe565b60008167ffffffffffffffff81111561364457613643613fa4565b5b6040519080825280601f01601f1916602001820160405280156136765781602001600182028036833780820191505090505b5090505b600085146137035760018261368f9190614b63565b9150600a8561369e9190615118565b60306136aa91906149db565b60f81b8183815181106136c0576136bf614c6f565b5b60200101907effffffffffffffffffffffffffffffffffffffffffffffffffffffffffffff1916908160001a905350600a856136fc91906150e7565b945061367a565b8093505050505b919050565b50505050565b50505050565b613728838383600161372d565b505050565b60006001549050600073ffffffffffffffffffffffffffffffffffffffff168573ffffffffffffffffffffffffffffffffffffffff16141561379b576040517f2e07630000000000000000000000000000000000000000000000000000000000815260040160405180910390fd5b60008414156137d6576040517fb562e8dd00000000000000000000000000000000000000000000000000000000815260040160405180910390fd5b6137e3600086838761370f565b83600660008773ffffffffffffffffffffffffffffffffffffffff1673ffffffffffffffffffffffffffffffffffffffff16815260200190815260200160002060000160008282829054906101000a900467ffffffffffffffff160192506101000a81548167ffffffffffffffff021916908367ffffffffffffffff16021790555083600660008773ffffffffffffffffffffffffffffffffffffffff1673ffffffffffffffffffffffffffffffffffffffff16815260200190815260200160002060000160088282829054906101000a900467ffffffffffffffff160192506101000a81548167ffffffffffffffff021916908367ffffffffffffffff160217905550846005600083815260200190815260200160002060000160006101000a81548173ffffffffffffffffffffffffffffffffffffffff021916908373ffffffffffffffffffffffffffffffffffffffff160217905550426005600083815260200190815260200160002060000160146101000a81548167ffffffffffffffff021916908367ffffffffffffffff1602179055506000819050600085820190508380156139ad57506139ac8773ffffffffffffffffffffffffffffffffffffffff16613399565b5b15613a73575b818773ffffffffffffffffffffffffffffffffffffffff16600073ffffffffffffffffffffffffffffffffffffffff167fddf252ad1be2c89b69c2b068fc378daa952ba7f163c4a11628f55a4df523b3ef60405160405180910390a4613a2260008884806001019550886133bc565b613a58576040517fd1a57ed600000000000000000000000000000000000000000000000000000000815260040160405180910390fd5b808214156139b3578260015414613a6e57600080fd5b613adf565b5b818060010192508773ffffffffffffffffffffffffffffffffffffffff16600073ffffffffffffffffffffffffffffffffffffffff167fddf252ad1be2c89b69c2b068fc378daa952ba7f163c4a11628f55a4df523b3ef60405160405180910390a480821415613a74575b816001819055505050613af56000868387613715565b5050505050565b828054613b08906145ce565b90600052602060002090601f016020900481019282613b2a5760008555613b71565b82601f10613b4357805160ff1916838001178555613b71565b82800160010185558215613b71579182015b82811115613b70578251825591602001919060010190613b55565b5b509050613b7e9190613bc5565b5090565b6040518060600160405280600073ffffffffffffffffffffffffffffffffffffffff168152602001600067ffffffffffffffff1681526020016000151581525090565b5b80821115613bde576000816000905550600101613bc6565b5090565b6000604051905090565b600080fd5b600080fd5b60007fffffffff0000000000000000000000000000000000000000000000000000000082169050919050565b613c2b81613bf6565b8114613c3657600080fd5b50565b600081359050613c4881613c22565b92915050565b600060208284031215613c6457613c63613bec565b5b6000613c7284828501613c39565b91505092915050565b60008115159050919050565b613c9081613c7b565b82525050565b6000602082019050613cab6000830184613c87565b92915050565b600081519050919050565b600082825260208201905092915050565b60005b83811015613ceb578082015181840152602081019050613cd0565b83811115613cfa576000848401525b50505050565b6000601f19601f8301169050919050565b6000613d1c82613cb1565b613d268185613cbc565b9350613d36818560208601613ccd565b613d3f81613d00565b840191505092915050565b60006020820190508181036000830152613d648184613d11565b905092915050565b6000819050919050565b613d7f81613d6c565b8114613d8a57600080fd5b50565b600081359050613d9c81613d76565b92915050565b600060208284031215613db857613db7613bec565b5b6000613dc684828501613d8d565b91505092915050565b600073ffffffffffffffffffffffffffffffffffffffff82169050919050565b6000613dfa82613dcf565b9050919050565b613e0a81613def565b82525050565b6000602082019050613e256000830184613e01565b92915050565b613e3481613def565b8114613e3f57600080fd5b50565b600081359050613e5181613e2b565b92915050565b60008060408385031215613e6e57613e6d613bec565b5b6000613e7c85828601613e42565b9250506020613e8d85828601613d8d565b9150509250929050565b600060208284031215613ead57613eac613bec565b5b6000613ebb84828501613e42565b91505092915050565b613ecd81613d6c565b82525050565b6000602082019050613ee86000830184613ec4565b92915050565b600080600060608486031215613f0757613f06613bec565b5b6000613f1586828701613e42565b9350506020613f2686828701613e42565b9250506040613f3786828701613d8d565b9150509250925092565b613f4a81613c7b565b8114613f5557600080fd5b50565b600081359050613f6781613f41565b92915050565b600060208284031215613f8357613f82613bec565b5b6000613f9184828501613f58565b91505092915050565b600080fd5b600080fd5b7f4e487b7100000000000000000000000000000000000000000000000000000000600052604160045260246000fd5b613fdc82613d00565b810181811067ffffffffffffffff82111715613ffb57613ffa613fa4565b5b80604052505050565b600061400e613be2565b905061401a8282613fd3565b919050565b600067ffffffffffffffff82111561403a57614039613fa4565b5b61404382613d00565b9050602081019050919050565b82818337600083830152505050565b600061407261406d8461401f565b614004565b90508281526020810184848401111561408e5761408d613f9f565b5b614099848285614050565b509392505050565b600082601f8301126140b6576140b5613f9a565b5b81356140c684826020860161405f565b91505092915050565b6000602082840312156140e5576140e4613bec565b5b600082013567ffffffffffffffff81111561410357614102613bf1565b5b61410f848285016140a1565b91505092915050565b600081519050919050565b600082825260208201905092915050565b6000819050602082019050919050565b61414d81613d6c565b82525050565b600061415f8383614144565b60208301905092915050565b6000602082019050919050565b600061418382614118565b61418d8185614123565b935061419883614134565b8060005b838110156141c95781516141b08882614153565b97506141bb8361416b565b92505060018101905061419c565b5085935050505092915050565b600060208201905081810360008301526141f08184614178565b905092915050565b6000806040838503121561420f5761420e613bec565b5b600061421d85828601613e42565b925050602061422e85828601613f58565b9150509250929050565b600067ffffffffffffffff82111561425357614252613fa4565b5b61425c82613d00565b9050602081019050919050565b600061427c61427784614238565b614004565b90508281526020810184848401111561429857614297613f9f565b5b6142a3848285614050565b509392505050565b600082601f8301126142c0576142bf613f9a565b5b81356142d0848260208601614269565b91505092915050565b600080600080608085870312156142f3576142f2613bec565b5b600061430187828801613e42565b945050602061431287828801613e42565b935050604061432387828801613d8d565b925050606085013567ffffffffffffffff81111561434457614343613bf1565b5b614350878288016142ab565b91505092959194509250565b6000806040838503121561437357614372613bec565b5b600061438185828601613e42565b925050602061439285828601613e42565b9150509250929050565b600067ffffffffffffffff8211156143b7576143b6613fa4565b5b602082029050602081019050919050565b600080fd5b60006143e06143db8461439c565b614004565b90508083825260208201905060208402830185811115614403576144026143c8565b5b835b8181101561442c57806144188882613e42565b845260208401935050602081019050614405565b5050509392505050565b600082601f83011261444b5761444a613f9a565b5b813561445b8482602086016143cd565b91505092915050565b600067ffffffffffffffff82111561447f5761447e613fa4565b5b602082029050602081019050919050565b60006144a361449e84614464565b614004565b905080838252602082019050602084028301858111156144c6576144c56143c8565b5b835b818110156144ef57806144db8882613d8d565b8452602084019350506020810190506144c8565b5050509392505050565b600082601f83011261450e5761450d613f9a565b5b813561451e848260208601614490565b91505092915050565b6000806040838503121561453e5761453d613bec565b5b600083013567ffffffffffffffff81111561455c5761455b613bf1565b5b61456885828601614436565b925050602083013567ffffffffffffffff81111561458957614588613bf1565b5b614595858286016144f9565b9150509250929050565b7f4e487b7100000000000000000000000000000000000000000000000000000000600052602260045260246000fd5b600060028204905060018216806145e657607f821691505b602082108114156145fa576145f961459f565b5b50919050565b7f7768697465206c6973742069736e277420616374697665000000000000000000600082015250565b6000614636601783613cbc565b915061464182614600565b602082019050919050565b6000602082019050818103600083015261466581614629565b9050919050565b7f4f776e61626c653a2063616c6c6572206973206e6f7420746865206f776e6572600082015250565b60006146a2602083613cbc565b91506146ad8261466c565b602082019050919050565b600060208201905081810360008301526146d181614695565b9050919050565b7f4f776e657220686173206e6f742062616c616e636520746f207769746864726160008201527f7700000000000000000000000000000000000000000000000000000000000000602082015250565b6000614734602183613cbc565b915061473f826146d8565b604082019050919050565b6000602082019050818103600083015261476381614727565b9050919050565b600081905092915050565b50565b600061478560008361476a565b915061479082614775565b600082019050919050565b60006147a682614778565b9150819050919050565b7f4661696c656420746f2073656e6420757365722062616c616e6365206261636b60008201527f20746f20746865206f776e657200000000000000000000000000000000000000602082015250565b600061480c602d83613cbc565b9150614817826147b0565b604082019050919050565b6000602082019050818103600083015261483b816147ff565b9050919050565b7f57686974656c6973742069736e27742061637469766500000000000000000000600082015250565b6000614878601683613cbc565b915061488382614842565b602082019050919050565b600060208201905081810360008301526148a78161486b565b9050919050565b7f4e6f20746f6b656e7320726573657276656420666f7220796f7572206164647260008201527f6573730000000000000000000000000000000000000000000000000000000000602082015250565b600061490a602383613cbc565b9150614915826148ae565b604082019050919050565b60006020820190508181036000830152614939816148fd565b9050919050565b7f43616e2774206d696e74206d6f7265207468616e207265736572766564000000600082015250565b6000614976601d83613cbc565b915061498182614940565b602082019050919050565b600060208201905081810360008301526149a581614969565b9050919050565b7f4e487b7100000000000000000000000000000000000000000000000000000000600052601160045260246000fd5b60006149e682613d6c565b91506149f183613d6c565b9250827fffffffffffffffffffffffffffffffffffffffffffffffffffffffffffffffff03821115614a2657614a256149ac565b5b828201905092915050565b7f43616e2774206d696e74206d6f7265207468616e206d617820737570706c7900600082015250565b6000614a67601f83613cbc565b9150614a7282614a31565b602082019050919050565b60006020820190508181036000830152614a9681614a5a565b9050919050565b6000614aa882613d6c565b9150614ab383613d6c565b9250817fffffffffffffffffffffffffffffffffffffffffffffffffffffffffffffffff0483118215151615614aec57614aeb6149ac565b5b828202905092915050565b7f57726f6e6720616d6f756e74206f66204d415449432073656e74000000000000600082015250565b6000614b2d601a83613cbc565b9150614b3882614af7565b602082019050919050565b60006020820190508181036000830152614b5c81614b20565b9050919050565b6000614b6e82613d6c565b9150614b7983613d6c565b925082821015614b8c57614b8b6149ac565b5b828203905092915050565b7f526166666c652069736e27742061637469766500000000000000000000000000600082015250565b6000614bcd601383613cbc565b9150614bd882614b97565b602082019050919050565b60006020820190508181036000830152614bfc81614bc0565b9050919050565b7f6973206e6f74207265676973746572656420696e2074686520726166666c6500600082015250565b6000614c39601f83613cbc565b9150614c4482614c03565b602082019050919050565b60006020820190508181036000830152614c6881614c2c565b9050919050565b7f4e487b7100000000000000000000000000000000000000000000000000000000600052603260045260246000fd5b7f53616c652069736e277420616374697665000000000000000000000000000000600082015250565b6000614cd4601183613cbc565b9150614cdf82614c9e565b602082019050919050565b60006020820190508181036000830152614d0381614cc7565b9050919050565b7f43616e206f6e6c79206d696e74206265747765656e203120616e64203130207460008201527f6f6b656e73206174206f6e636500000000000000000000000000000000000000602082015250565b6000614d66602d83613cbc565b9150614d7182614d0a565b604082019050919050565b60006020820190508181036000830152614d9581614d59565b9050919050565b600081905092915050565b6000614db282613cb1565b614dbc8185614d9c565b9350614dcc818560208601613ccd565b80840191505092915050565b6000614de48285614da7565b9150614df08284614da7565b91508190509392505050565b6000614e0782613d6c565b91507fffffffffffffffffffffffffffffffffffffffffffffffffffffffffffffffff821415614e3a57614e396149ac565b5b600182019050919050565b7f4f776e61626c653a206e6577206f776e657220697320746865207a65726f206160008201527f6464726573730000000000000000000000000000000000000000000000000000602082015250565b6000614ea1602683613cbc565b9150614eac82614e45565b604082019050919050565b60006020820190508181036000830152614ed081614e94565b9050919050565b7f726166666c652069736e27742061637469766500000000000000000000000000600082015250565b6000614f0d601383613cbc565b9150614f1882614ed7565b602082019050919050565b60006020820190508181036000830152614f3c81614f00565b9050919050565b7f43616e206f6e6c79206d696e74206265747765656e203120616e64203230207460008201527f6f6b656e73206174206f6e636500000000000000000000000000000000000000602082015250565b6000614f9f602d83613cbc565b9150614faa82614f43565b604082019050919050565b60006020820190508181036000830152614fce81614f92565b9050919050565b600081519050919050565b600082825260208201905092915050565b6000614ffc82614fd5565b6150068185614fe0565b9350615016818560208601613ccd565b61501f81613d00565b840191505092915050565b600060808201905061503f6000830187613e01565b61504c6020830186613e01565b6150596040830185613ec4565b818103606083015261506b8184614ff1565b905095945050505050565b60008151905061508581613c22565b92915050565b6000602082840312156150a1576150a0613bec565b5b60006150af84828501615076565b91505092915050565b7f4e487b7100000000000000000000000000000000000000000000000000000000600052601260045260246000fd5b60006150f282613d6c565b91506150fd83613d6c565b92508261510d5761510c6150b8565b5b828204905092915050565b600061512382613d6c565b915061512e83613d6c565b92508261513e5761513d6150b8565b5b82820690509291505056fea2646970667358221220eb46424b7e81fc3ccf3e60aab14e1eec6fc0c1e0f74fe747287c34e22fcc027f64736f6c6343000809003368747470733a2f2f686f7374696c652d737175697272656c2e75632e722e61707073706f742e636f6d2f",
  "linkReferences": {},
  "deployedLinkReferences": {}
}