{
  "_format": "hh-sol-artifact-1",
  "contractName": "TimeLockedWallet",
  "sourceName": "contracts/TimeLocked/TimeLockedWallet.sol",
  "abi": [
    {
      "inputs": [
        {
          "internalType": "contract IERC20",
          "name": "_token",
          "type": "address"
        },
        {
          "internalType": "address",
          "name": "_creator",
          "type": "address"
        },
        {
          "internalType": "address",
          "name": "_owner",
          "type": "address"
        },
        {
          "internalType": "uint256",
          "name": "_amount",
          "type": "uint256"
        },
        {
          "internalType": "uint256",
          "name": "_unlockDate",
          "type": "uint256"
        }
      ],
      "stateMutability": "nonpayable",
      "type": "constructor"
    },
    {
      "anonymous": false,
      "inputs": [
        {
          "indexed": false,
          "internalType": "address",
          "name": "from",
          "type": "address"
        },
        {
          "indexed": false,
          "internalType": "uint256",
          "name": "amount",
          "type": "uint256"
        }
      ],
      "name": "Received",
      "type": "event"
    },
    {
      "anonymous": false,
      "inputs": [
        {
          "indexed": false,
          "internalType": "address",
          "name": "to",
          "type": "address"
        },
        {
          "indexed": false,
          "internalType": "uint256",
          "name": "amount",
          "type": "uint256"
        }
      ],
      "name": "RemoveAdvisor",
      "type": "event"
    },
    {
      "anonymous": false,
      "inputs": [
        {
          "indexed": true,
          "internalType": "bytes32",
          "name": "role",
          "type": "bytes32"
        },
        {
          "indexed": true,
          "internalType": "bytes32",
          "name": "previousAdminRole",
          "type": "bytes32"
        },
        {
          "indexed": true,
          "internalType": "bytes32",
          "name": "newAdminRole",
          "type": "bytes32"
        }
      ],
      "name": "RoleAdminChanged",
      "type": "event"
    },
    {
      "anonymous": false,
      "inputs": [
        {
          "indexed": true,
          "internalType": "bytes32",
          "name": "role",
          "type": "bytes32"
        },
        {
          "indexed": true,
          "internalType": "address",
          "name": "account",
          "type": "address"
        },
        {
          "indexed": true,
          "internalType": "address",
          "name": "sender",
          "type": "address"
        }
      ],
      "name": "RoleGranted",
      "type": "event"
    },
    {
      "anonymous": false,
      "inputs": [
        {
          "indexed": true,
          "internalType": "bytes32",
          "name": "role",
          "type": "bytes32"
        },
        {
          "indexed": true,
          "internalType": "address",
          "name": "account",
          "type": "address"
        },
        {
          "indexed": true,
          "internalType": "address",
          "name": "sender",
          "type": "address"
        }
      ],
      "name": "RoleRevoked",
      "type": "event"
    },
    {
      "anonymous": false,
      "inputs": [
        {
          "indexed": false,
          "internalType": "address",
          "name": "to",
          "type": "address"
        },
        {
          "indexed": false,
          "internalType": "uint256",
          "name": "amount",
          "type": "uint256"
        }
      ],
      "name": "Withdrew",
      "type": "event"
    },
    {
      "inputs": [],
      "name": "DEFAULT_ADMIN_ROLE",
      "outputs": [
        {
          "internalType": "bytes32",
          "name": "",
          "type": "bytes32"
        }
      ],
      "stateMutability": "view",
      "type": "function"
    },
    {
      "inputs": [],
      "name": "USER_ROLE",
      "outputs": [
        {
          "internalType": "bytes32",
          "name": "",
          "type": "bytes32"
        }
      ],
      "stateMutability": "view",
      "type": "function"
    },
    {
      "inputs": [
        {
          "internalType": "address",
          "name": "account",
          "type": "address"
        }
      ],
      "name": "addAdmin",
      "outputs": [],
      "stateMutability": "nonpayable",
      "type": "function"
    },
    {
      "inputs": [
        {
          "internalType": "address",
          "name": "account",
          "type": "address"
        }
      ],
      "name": "addUser",
      "outputs": [],
      "stateMutability": "nonpayable",
      "type": "function"
    },
    {
      "inputs": [],
      "name": "amount",
      "outputs": [
        {
          "internalType": "uint256",
          "name": "",
          "type": "uint256"
        }
      ],
      "stateMutability": "view",
      "type": "function"
    },
    {
      "inputs": [],
      "name": "createdAt",
      "outputs": [
        {
          "internalType": "uint256",
          "name": "",
          "type": "uint256"
        }
      ],
      "stateMutability": "view",
      "type": "function"
    },
    {
      "inputs": [],
      "name": "creator",
      "outputs": [
        {
          "internalType": "address",
          "name": "",
          "type": "address"
        }
      ],
      "stateMutability": "view",
      "type": "function"
    },
    {
      "inputs": [
        {
          "internalType": "bytes32",
          "name": "role",
          "type": "bytes32"
        }
      ],
      "name": "getRoleAdmin",
      "outputs": [
        {
          "internalType": "bytes32",
          "name": "",
          "type": "bytes32"
        }
      ],
      "stateMutability": "view",
      "type": "function"
    },
    {
      "inputs": [
        {
          "internalType": "bytes32",
          "name": "role",
          "type": "bytes32"
        },
        {
          "internalType": "address",
          "name": "account",
          "type": "address"
        }
      ],
      "name": "grantRole",
      "outputs": [],
      "stateMutability": "nonpayable",
      "type": "function"
    },
    {
      "inputs": [
        {
          "internalType": "bytes32",
          "name": "role",
          "type": "bytes32"
        },
        {
          "internalType": "address",
          "name": "account",
          "type": "address"
        }
      ],
      "name": "hasRole",
      "outputs": [
        {
          "internalType": "bool",
          "name": "",
          "type": "bool"
        }
      ],
      "stateMutability": "view",
      "type": "function"
    },
    {
      "inputs": [],
      "name": "info",
      "outputs": [
        {
          "components": [
            {
              "internalType": "address",
              "name": "creator",
              "type": "address"
            },
            {
              "internalType": "address",
              "name": "walletOwner",
              "type": "address"
            },
            {
              "internalType": "uint256",
              "name": "amount",
              "type": "uint256"
            },
            {
              "internalType": "uint256",
              "name": "unlockDate",
              "type": "uint256"
            },
            {
              "internalType": "uint256",
              "name": "createdAt",
              "type": "uint256"
            }
          ],
          "internalType": "struct TimeLockedWallet.Wallet",
          "name": "",
          "type": "tuple"
        }
      ],
      "stateMutability": "view",
      "type": "function"
    },
    {
      "inputs": [
        {
          "internalType": "address",
          "name": "account",
          "type": "address"
        }
      ],
      "name": "isAdmin",
      "outputs": [
        {
          "internalType": "bool",
          "name": "",
          "type": "bool"
        }
      ],
      "stateMutability": "view",
      "type": "function"
    },
    {
      "inputs": [
        {
          "internalType": "address",
          "name": "account",
          "type": "address"
        }
      ],
      "name": "isUser",
      "outputs": [
        {
          "internalType": "bool",
          "name": "",
          "type": "bool"
        }
      ],
      "stateMutability": "view",
      "type": "function"
    },
    {
      "inputs": [
        {
          "internalType": "address",
          "name": "_account",
          "type": "address"
        }
      ],
      "name": "removeAdvisor",
      "outputs": [],
      "stateMutability": "nonpayable",
      "type": "function"
    },
    {
      "inputs": [
        {
          "internalType": "address",
          "name": "account",
          "type": "address"
        }
      ],
      "name": "removeUser",
      "outputs": [],
      "stateMutability": "nonpayable",
      "type": "function"
    },
    {
      "inputs": [],
      "name": "renounceAdmin",
      "outputs": [],
      "stateMutability": "nonpayable",
      "type": "function"
    },
    {
      "inputs": [
        {
          "internalType": "bytes32",
          "name": "role",
          "type": "bytes32"
        },
        {
          "internalType": "address",
          "name": "account",
          "type": "address"
        }
      ],
      "name": "renounceRole",
      "outputs": [],
      "stateMutability": "nonpayable",
      "type": "function"
    },
    {
      "inputs": [
        {
          "internalType": "bytes32",
          "name": "role",
          "type": "bytes32"
        },
        {
          "internalType": "address",
          "name": "account",
          "type": "address"
        }
      ],
      "name": "revokeRole",
      "outputs": [],
      "stateMutability": "nonpayable",
      "type": "function"
    },
    {
      "inputs": [
        {
          "internalType": "bytes4",
          "name": "interfaceId",
          "type": "bytes4"
        }
      ],
      "name": "supportsInterface",
      "outputs": [
        {
          "internalType": "bool",
          "name": "",
          "type": "bool"
        }
      ],
      "stateMutability": "view",
      "type": "function"
    },
    {
      "inputs": [],
      "name": "token",
      "outputs": [
        {
          "internalType": "contract IERC20",
          "name": "",
          "type": "address"
        }
      ],
      "stateMutability": "view",
      "type": "function"
    },
    {
      "inputs": [],
      "name": "unlockDate",
      "outputs": [
        {
          "internalType": "uint256",
          "name": "",
          "type": "uint256"
        }
      ],
      "stateMutability": "view",
      "type": "function"
    },
    {
      "inputs": [],
      "name": "walletOwner",
      "outputs": [
        {
          "internalType": "address",
          "name": "",
          "type": "address"
        }
      ],
      "stateMutability": "view",
      "type": "function"
    },
    {
      "inputs": [],
      "name": "withdraw",
      "outputs": [
        {
          "internalType": "bool",
          "name": "",
          "type": "bool"
        }
      ],
      "stateMutability": "nonpayable",
      "type": "function"
    }
  ],
  "bytecode": "0x60806040523480156200001157600080fd5b506040516200125338038062001253833981016040819052620000349162000226565b6200004160003362000112565b6200006e7f2db9fd3d099848027c2383d0a083396f6c41510d7acfd92adc99b6cffcf31e96600062000122565b600680546001600160a01b038088166001600160a01b03199283161790925560018054878416908316179055600280549286169290911691909117905560038290556004819055426005557f88a5966d370b9919b20f3e2c13ff65706f196a4e32cc2c12bf57088f88525874620000e23390565b600354604080516001600160a01b03909316835260208301919091520160405180910390a150505050506200028b565b6200011e82826200016d565b5050565b600082815260208190526040808220600101805490849055905190918391839186917fbd79b86ffe0ab8e8776151514217cd7cacd52c909f66475c3af44e129f0b00ff9190a4505050565b6000828152602081815260408083206001600160a01b038516845290915290205460ff166200011e576000828152602081815260408083206001600160a01b03851684529091529020805460ff19166001179055620001c93390565b6001600160a01b0316816001600160a01b0316837f2f8788117e7eff1d82e926ec794901d17c78024a50270940304540a733656f0d60405160405180910390a45050565b6001600160a01b03811681146200022357600080fd5b50565b600080600080600060a086880312156200023f57600080fd5b85516200024c816200020d565b60208701519095506200025f816200020d565b604087015190945062000272816200020d565b6060870151608090970151959894975095949392505050565b610fb8806200029b6000396000f3fe608060405234801561001057600080fd5b506004361061011d5760003560e01c806301ffc9a71461012257806302d05d3f1461014a5780630eeccb841461016a578063131191611461017f5780631ae879e8146101a2578063248a9ca3146101b557806324d7806c146101c85780632f2ff15d146101db57806336568abe146101ee578063370158ea146102015780633ccfd60b146102545780634209fff11461025c578063421b2d8b1461026f57806369ac572114610282578063704802751461028b5780638bad0c0a1461029e57806391d14854146102a657806398575188146102b9578063a217fddf146102cc578063aa8c217c146102d4578063cf09e0d0146102dd578063d547741f146102e6578063fc0c546a146102f9575b600080fd5b610135610130366004610ca3565b61030c565b60405190151581526020015b60405180910390f35b60015461015d906001600160a01b031681565b6040516101419190610ccd565b61017d610178366004610cfd565b610343565b005b610194600080516020610f6383398151915281565b604051908152602001610141565b60025461015d906001600160a01b031681565b6101946101c3366004610d18565b6105b8565b6101356101d6366004610cfd565b6105cd565b61017d6101e9366004610d31565b6105d9565b61017d6101fc366004610d31565b6105fb565b610209610679565b604051610141919081516001600160a01b0390811682526020808401519091169082015260408083015190820152606080830151908201526080918201519181019190915260a00190565b6101356106fe565b61013561026a366004610cfd565b61089e565b61017d61027d366004610cfd565b6108b8565b61019460045481565b61017d610299366004610cfd565b6108f8565b61017d610928565b6101356102b4366004610d31565b610935565b61017d6102c7366004610cfd565b61095e565b610194600081565b61019460035481565b61019460055481565b61017d6102f4366004610d31565b610997565b60065461015d906001600160a01b031681565b60006001600160e01b03198216637965db0b60e01b148061033d57506301ffc9a760e01b6001600160e01b03198316145b92915050565b61034c336105cd565b6103715760405162461bcd60e51b815260040161036890610d5d565b60405180910390fd5b6003546006546040516370a0823160e01b81526001600160a01b03909116906370a08231906103a4903090600401610ccd565b60206040518083038186803b1580156103bc57600080fd5b505afa1580156103d0573d6000803e3d6000fd5b505050506040513d601f19601f820116820180604052508101906103f49190610d8c565b10156104745760405162461bcd60e51b815260206004820152604360248201527f52656d6f766541647669736f723a2056656e646f7220636f6e7472616374206860448201527f6173206e6f7420656e6f75676820746f6b656e7320696e206974732062616c616064820152626e636560e81b608482015260a401610368565b60065460035460405163a9059cbb60e01b81526001600160a01b039092169163a9059cbb916104a891859190600401610da5565b602060405180830381600087803b1580156104c257600080fd5b505af11580156104d6573d6000803e3d6000fd5b505050506040513d601f19601f820116820180604052508101906104fa9190610dbe565b6105655760405162461bcd60e51b815260206004820152603660248201527f52656d6f766541647669736f723a204661696c656420746f207472616e7366656044820152751c881d1bdad95b881d1bc81d1a19481858d8dbdd5b9d60521b6064820152608401610368565b6000600355600280546001600160a01b03191690557f1d89fefe209e50805ed00230f7c29d2ad19ccfc9547d3725cbdccd08a83f6298336003546040516105ad929190610da5565b60405180910390a150565b60009081526020819052604090206001015490565b600061033d8183610935565b6105e2826105b8565b6105ec81336109b4565b6105f68383610a18565b505050565b6001600160a01b038116331461066b5760405162461bcd60e51b815260206004820152602f60248201527f416363657373436f6e74726f6c3a2063616e206f6e6c792072656e6f756e636560448201526e103937b632b9903337b91039b2b63360891b6064820152608401610368565b6106758282610a9c565b5050565b6106bd6040518060a0016040528060006001600160a01b0316815260200160006001600160a01b031681526020016000815260200160008152602001600081525090565b506040805160a0810182526001546001600160a01b039081168252600254166020820152600354918101919091526004546060820152600554608082015290565b6002546000906001600160a01b0316336001600160a01b03161461072157600080fd5b6004544210156107875760405162461bcd60e51b815260206004820152603d6024820152600080516020610f4383398151915260448201527f656e20746f206f776e65722c206e6f742079657420756e6c6f636b65640000006064820152608401610368565b60065460025460035460405163a9059cbb60e01b81526001600160a01b039384169363a9059cbb936107be93911691600401610da5565b602060405180830381600087803b1580156107d857600080fd5b505af11580156107ec573d6000803e3d6000fd5b505050506040513d601f19601f820116820180604052508101906108109190610dbe565b61085d5760405162461bcd60e51b815260206004820152602a6024820152600080516020610f4383398151915260448201526932b7103a37903ab9b2b960b11b6064820152608401610368565b7fb244b9a17ad633c6e83b7983ee04320484956a68ddbe96a0b70dfca1cf19d72333600354604051610890929190610da5565b60405180910390a150600190565b600061033d600080516020610f6383398151915283610935565b6108c1336105cd565b6108dd5760405162461bcd60e51b815260040161036890610d5d565b6108f5600080516020610f63833981519152826105d9565b50565b610901336105cd565b61091d5760405162461bcd60e51b815260040161036890610d5d565b6108f56000826105d9565b6109336000336105fb565b565b6000918252602082815260408084206001600160a01b0393909316845291905290205460ff1690565b610967336105cd565b6109835760405162461bcd60e51b815260040161036890610d5d565b6108f5600080516020610f63833981519152825b6109a0826105b8565b6109aa81336109b4565b6105f68383610a9c565b6109be8282610935565b610675576109d6816001600160a01b03166014610b01565b6109e1836020610b01565b6040516020016109f2929190610e10565b60408051601f198184030181529082905262461bcd60e51b825261036891600401610e7f565b610a228282610935565b610675576000828152602081815260408083206001600160a01b03851684529091529020805460ff19166001179055610a583390565b6001600160a01b0316816001600160a01b0316837f2f8788117e7eff1d82e926ec794901d17c78024a50270940304540a733656f0d60405160405180910390a45050565b610aa68282610935565b15610675576000828152602081815260408083206001600160a01b0385168085529252808320805460ff1916905551339285917ff6391f5c32d9c69d2a47ea670b442974b53935d1edc7fd64eb21e047a839171b9190a45050565b60606000610b10836002610ec8565b610b1b906002610ee7565b6001600160401b03811115610b3257610b32610eff565b6040519080825280601f01601f191660200182016040528015610b5c576020820181803683370190505b509050600360fc1b81600081518110610b7757610b77610f15565b60200101906001600160f81b031916908160001a905350600f60fb1b81600181518110610ba657610ba6610f15565b60200101906001600160f81b031916908160001a9053506000610bca846002610ec8565b610bd5906001610ee7565b90505b6001811115610c4d576f181899199a1a9b1b9c1cb0b131b232b360811b85600f1660108110610c0957610c09610f15565b1a60f81b828281518110610c1f57610c1f610f15565b60200101906001600160f81b031916908160001a90535060049490941c93610c4681610f2b565b9050610bd8565b508315610c9c5760405162461bcd60e51b815260206004820181905260248201527f537472696e67733a20686578206c656e67746820696e73756666696369656e746044820152606401610368565b9392505050565b600060208284031215610cb557600080fd5b81356001600160e01b031981168114610c9c57600080fd5b6001600160a01b0391909116815260200190565b80356001600160a01b0381168114610cf857600080fd5b919050565b600060208284031215610d0f57600080fd5b610c9c82610ce1565b600060208284031215610d2a57600080fd5b5035919050565b60008060408385031215610d4457600080fd5b82359150610d5460208401610ce1565b90509250929050565b6020808252601590820152742932b9ba3934b1ba32b2103a379030b236b4b7399760591b604082015260600190565b600060208284031215610d9e57600080fd5b5051919050565b6001600160a01b03929092168252602082015260400190565b600060208284031215610dd057600080fd5b81518015158114610c9c57600080fd5b60005b83811015610dfb578181015183820152602001610de3565b83811115610e0a576000848401525b50505050565b76020b1b1b2b9b9a1b7b73a3937b61d1030b1b1b7bab73a1604d1b815260008351610e42816017850160208801610de0565b7001034b99036b4b9b9b4b733903937b6329607d1b6017918401918201528351610e73816028840160208801610de0565b01602801949350505050565b6020815260008251806020840152610e9e816040850160208701610de0565b601f01601f19169190910160400192915050565b634e487b7160e01b600052601160045260246000fd5b6000816000190483118215151615610ee257610ee2610eb2565b500290565b60008219821115610efa57610efa610eb2565b500190565b634e487b7160e01b600052604160045260246000fd5b634e487b7160e01b600052603260045260246000fd5b600081610f3a57610f3a610eb2565b50600019019056fe57697468647261773a204661696c656420746f207472616e7366657220746f6b2db9fd3d099848027c2383d0a083396f6c41510d7acfd92adc99b6cffcf31e96a26469706673582212209e411ba38e2090167b8b3a43df0cb1925f17702df8b906e692dea437d06482a864736f6c63430008090033",
  "linkReferences": {},
  "deployedLinkReferences": {}
}